{
  "_format": "hh-sol-artifact-1",
  "contractName": "Depot",
  "sourceName": "contracts/depot/Depot.sol",
  "abi": [
    {
      "inputs": [
        {
          "components": [
            {
              "internalType": "address",
              "name": "target",
              "type": "address"
            },
            {
              "internalType": "bytes",
              "name": "callData",
              "type": "bytes"
            },
            {
              "internalType": "bytes",
              "name": "clipboard",
              "type": "bytes"
            }
          ],
          "internalType": "struct AdvancedPipeCall[]",
          "name": "pipes",
          "type": "tuple[]"
        },
        {
          "internalType": "uint256",
          "name": "value",
          "type": "uint256"
        }
      ],
      "name": "advancedPipe",
      "outputs": [
        {
          "internalType": "bytes[]",
          "name": "results",
          "type": "bytes[]"
        }
      ],
      "stateMutability": "payable",
      "type": "function"
    },
    {
      "inputs": [
        {
          "internalType": "contract IERC1155",
          "name": "token",
          "type": "address"
        },
        {
          "internalType": "address",
          "name": "to",
          "type": "address"
        },
        {
          "internalType": "uint256[]",
          "name": "ids",
          "type": "uint256[]"
        },
        {
          "internalType": "uint256[]",
          "name": "values",
          "type": "uint256[]"
        }
      ],
      "name": "batchTransferERC1155",
      "outputs": [],
      "stateMutability": "payable",
      "type": "function"
    },
    {
      "inputs": [
        {
          "components": [
            {
              "internalType": "address",
              "name": "target",
              "type": "address"
            },
            {
              "internalType": "bytes",
              "name": "data",
              "type": "bytes"
            }
          ],
          "internalType": "struct PipeCall",
          "name": "p",
          "type": "tuple"
        },
        {
          "internalType": "uint256",
          "name": "value",
          "type": "uint256"
        }
      ],
      "name": "etherPipe",
      "outputs": [
        {
          "internalType": "bytes",
          "name": "result",
          "type": "bytes"
        }
      ],
      "stateMutability": "payable",
      "type": "function"
    },
    {
      "inputs": [
        {
          "internalType": "bytes[]",
          "name": "data",
          "type": "bytes[]"
        }
      ],
      "name": "farm",
      "outputs": [
        {
          "internalType": "bytes[]",
          "name": "results",
          "type": "bytes[]"
        }
      ],
      "stateMutability": "payable",
      "type": "function"
    },
    {
      "inputs": [
        {
          "components": [
            {
              "internalType": "address",
              "name": "target",
              "type": "address"
            },
            {
              "internalType": "bytes",
              "name": "data",
              "type": "bytes"
            }
          ],
          "internalType": "struct PipeCall[]",
          "name": "pipes",
          "type": "tuple[]"
        }
      ],
      "name": "multiPipe",
      "outputs": [
        {
          "internalType": "bytes[]",
          "name": "results",
          "type": "bytes[]"
        }
      ],
      "stateMutability": "payable",
      "type": "function"
    },
    {
      "inputs": [
        {
          "internalType": "address",
          "name": "owner",
          "type": "address"
        },
        {
          "internalType": "address",
          "name": "spender",
          "type": "address"
        },
        {
          "internalType": "address",
          "name": "token",
          "type": "address"
        },
        {
          "internalType": "uint256",
          "name": "value",
          "type": "uint256"
        },
        {
          "internalType": "uint256",
          "name": "deadline",
          "type": "uint256"
        },
        {
          "internalType": "uint8",
          "name": "v",
          "type": "uint8"
        },
        {
          "internalType": "bytes32",
          "name": "r",
          "type": "bytes32"
        },
        {
          "internalType": "bytes32",
          "name": "s",
          "type": "bytes32"
        }
      ],
      "name": "permitDeposit",
      "outputs": [],
      "stateMutability": "payable",
      "type": "function"
    },
    {
      "inputs": [
        {
          "internalType": "address",
          "name": "owner",
          "type": "address"
        },
        {
          "internalType": "address",
          "name": "spender",
          "type": "address"
        },
        {
          "internalType": "address[]",
          "name": "tokens",
          "type": "address[]"
        },
        {
          "internalType": "uint256[]",
          "name": "values",
          "type": "uint256[]"
        },
        {
          "internalType": "uint256",
          "name": "deadline",
          "type": "uint256"
        },
        {
          "internalType": "uint8",
          "name": "v",
          "type": "uint8"
        },
        {
          "internalType": "bytes32",
          "name": "r",
          "type": "bytes32"
        },
        {
          "internalType": "bytes32",
          "name": "s",
          "type": "bytes32"
        }
      ],
      "name": "permitDeposits",
      "outputs": [],
      "stateMutability": "payable",
      "type": "function"
    },
    {
      "inputs": [
        {
          "internalType": "contract IERC20Permit",
          "name": "token",
          "type": "address"
        },
        {
          "internalType": "address",
          "name": "owner",
          "type": "address"
        },
        {
          "internalType": "address",
          "name": "spender",
          "type": "address"
        },
        {
          "internalType": "uint256",
          "name": "value",
          "type": "uint256"
        },
        {
          "internalType": "uint256",
          "name": "deadline",
          "type": "uint256"
        },
        {
          "internalType": "uint8",
          "name": "v",
          "type": "uint8"
        },
        {
          "internalType": "bytes32",
          "name": "r",
          "type": "bytes32"
        },
        {
          "internalType": "bytes32",
          "name": "s",
          "type": "bytes32"
        }
      ],
      "name": "permitERC20",
      "outputs": [],
      "stateMutability": "payable",
      "type": "function"
    },
    {
      "inputs": [
        {
          "internalType": "contract IERC4494",
          "name": "token",
          "type": "address"
        },
        {
          "internalType": "address",
          "name": "spender",
          "type": "address"
        },
        {
          "internalType": "uint256",
          "name": "tokenId",
          "type": "uint256"
        },
        {
          "internalType": "uint256",
          "name": "deadline",
          "type": "uint256"
        },
        {
          "internalType": "bytes",
          "name": "sig",
          "type": "bytes"
        }
      ],
      "name": "permitERC721",
      "outputs": [],
      "stateMutability": "payable",
      "type": "function"
    },
    {
      "inputs": [
        {
          "internalType": "address",
          "name": "owner",
          "type": "address"
        },
        {
          "internalType": "address",
          "name": "spender",
          "type": "address"
        },
        {
          "internalType": "address",
          "name": "token",
          "type": "address"
        },
        {
          "internalType": "uint256",
          "name": "value",
          "type": "uint256"
        },
        {
          "internalType": "uint256",
          "name": "deadline",
          "type": "uint256"
        },
        {
          "internalType": "uint8",
          "name": "v",
          "type": "uint8"
        },
        {
          "internalType": "bytes32",
          "name": "r",
          "type": "bytes32"
        },
        {
          "internalType": "bytes32",
          "name": "s",
          "type": "bytes32"
        }
      ],
      "name": "permitToken",
      "outputs": [],
      "stateMutability": "payable",
      "type": "function"
    },
    {
      "inputs": [
        {
          "components": [
            {
              "internalType": "address",
              "name": "target",
              "type": "address"
            },
            {
              "internalType": "bytes",
              "name": "data",
              "type": "bytes"
            }
          ],
          "internalType": "struct PipeCall",
          "name": "p",
          "type": "tuple"
        }
      ],
      "name": "pipe",
      "outputs": [
        {
          "internalType": "bytes",
          "name": "result",
          "type": "bytes"
        }
      ],
      "stateMutability": "payable",
      "type": "function"
    },
    {
      "inputs": [
        {
          "components": [
            {
              "internalType": "address",
              "name": "target",
              "type": "address"
            },
            {
              "internalType": "bytes",
              "name": "data",
              "type": "bytes"
            }
          ],
          "internalType": "struct PipeCall",
          "name": "p",
          "type": "tuple"
        }
      ],
      "name": "readPipe",
      "outputs": [
        {
          "internalType": "bytes",
          "name": "result",
          "type": "bytes"
        }
      ],
      "stateMutability": "view",
      "type": "function"
    },
    {
      "inputs": [
        {
          "internalType": "address",
          "name": "sender",
          "type": "address"
        },
        {
          "internalType": "address",
          "name": "recipient",
          "type": "address"
        },
        {
          "internalType": "address",
          "name": "token",
          "type": "address"
        },
        {
          "internalType": "uint32",
          "name": "season",
          "type": "uint32"
        },
        {
          "internalType": "uint256",
          "name": "amount",
          "type": "uint256"
        }
      ],
      "name": "transferDeposit",
      "outputs": [
        {
          "internalType": "uint256",
          "name": "bdv",
          "type": "uint256"
        }
      ],
      "stateMutability": "payable",
      "type": "function"
    },
    {
      "inputs": [
        {
          "internalType": "address",
          "name": "sender",
          "type": "address"
        },
        {
          "internalType": "address",
          "name": "recipient",
          "type": "address"
        },
        {
          "internalType": "address",
          "name": "token",
          "type": "address"
        },
        {
          "internalType": "uint32[]",
          "name": "seasons",
          "type": "uint32[]"
        },
        {
          "internalType": "uint256[]",
          "name": "amounts",
          "type": "uint256[]"
        }
      ],
      "name": "transferDeposits",
      "outputs": [
        {
          "internalType": "uint256[]",
          "name": "bdvs",
          "type": "uint256[]"
        }
      ],
      "stateMutability": "payable",
      "type": "function"
    },
    {
      "inputs": [
        {
          "internalType": "contract IERC1155",
          "name": "token",
          "type": "address"
        },
        {
          "internalType": "address",
          "name": "to",
          "type": "address"
        },
        {
          "internalType": "uint256",
          "name": "id",
          "type": "uint256"
        },
        {
          "internalType": "uint256",
          "name": "value",
          "type": "uint256"
        }
      ],
      "name": "transferERC1155",
      "outputs": [],
      "stateMutability": "payable",
      "type": "function"
    },
    {
      "inputs": [
        {
          "internalType": "contract IERC721",
          "name": "token",
          "type": "address"
        },
        {
          "internalType": "address",
          "name": "to",
          "type": "address"
        },
        {
          "internalType": "uint256",
          "name": "id",
          "type": "uint256"
        }
      ],
      "name": "transferERC721",
      "outputs": [],
      "stateMutability": "payable",
      "type": "function"
    },
    {
      "inputs": [
        {
          "internalType": "contract IERC20",
          "name": "token",
          "type": "address"
        },
        {
          "internalType": "address",
          "name": "recipient",
          "type": "address"
        },
        {
          "internalType": "uint256",
          "name": "amount",
          "type": "uint256"
        },
        {
          "internalType": "enum From",
          "name": "fromMode",
          "type": "uint8"
        },
        {
          "internalType": "enum To",
          "name": "toMode",
          "type": "uint8"
        }
      ],
      "name": "transferToken",
      "outputs": [],
      "stateMutability": "payable",
      "type": "function"
    }
  ],
  "bytecode": "0x608060405234801561001057600080fd5b50611fa9806100206000396000f3fe60806040526004361061010e5760003560e01c80636e47d07b116100a5578063b442b39811610074578063cabec62b11610059578063cabec62b1461025c578063d5770dc71461026f578063dd756c4f146102825761010e565b8063b442b39814610236578063b452c7ae146102495761010e565b80636e47d07b146101dd5780637c516e94146101f05780639e32d26114610203578063a9412a59146102235761010e565b80631aca6376116100e15780631aca637614610184578063300dd6cf146101975780634935ed43146101b75780636204aa43146101ca5761010e565b806308e1a0ab146101135780630a7e880c1461013c5780630d2615b114610151578063120b570214610171575b600080fd5b6101266101213660046116d9565b6102a2565b6040516101339190611d2b565b60405180910390f35b61014f61014a3660046114f3565b610338565b005b61016461015f36600461101e565b6103ca565b6040516101339190611ce7565b61014f61017f3660046110c3565b6104bb565b61014f610192366004611653565b610555565b6101aa6101a5366004611263565b6105d5565b6040516101339190611b66565b61014f6101c53660046115a5565b6106d8565b61014f6101d8366004611538565b61075c565b6101266101eb36600461170c565b6108d3565b61014f6101fe3660046110c3565b61096f565b610216610211366004611143565b6109cd565b6040516101339190611e37565b61014f610231366004611461565b610aab565b61014f6102443660046110c3565b610b49565b6101aa61025736600461132c565b610b9a565b6101aa61026a366004611263565b610c58565b61014f61027d3660046111a4565b610d03565b34801561028e57600080fd5b5061012661029d3660046116d9565b610da3565b6040516308e1a0ab60e01b815260609073b1b300007b05d708a4bbfe71aaf64fe0b27a0125906308e1a0ab906102dc908590600401611e24565b600060405180830381600087803b1580156102f657600080fd5b505af115801561030a573d6000803e3d6000fd5b505050506040513d6000823e601f3d908101601f191682016040526103329190810190611426565b92915050565b604080516000815260208101918290527ff242432a000000000000000000000000000000000000000000000000000000009091526001600160a01b0385169063f242432a90610392903390879087908790602481016119c8565b600060405180830381600087803b1580156103ac57600080fd5b505af11580156103c0573d6000803e3d6000fd5b5050505050505050565b60606001600160a01b03881633146103fd5760405162461bcd60e51b81526004016103f490611d7f565b60405180910390fd5b6040517f0d2615b100000000000000000000000000000000000000000000000000000000815273c1e088fc1323b20bcbee9bd1b9fc9546db5624c590630d2615b1906104599033908b908b908b908b908b908b90600401611880565b600060405180830381600087803b15801561047357600080fd5b505af1158015610487573d6000803e3d6000fd5b505050506040513d6000823e601f3d908101601f191682016040526104af9190810190611376565b98975050505050505050565b6040517f120b570200000000000000000000000000000000000000000000000000000000815273c1e088fc1323b20bcbee9bd1b9fc9546db5624c59063120b570290610519908b908b908b908b908b908b908b908b90600401611a0b565b600060405180830381600087803b15801561053357600080fd5b505af1158015610547573d6000803e3d6000fd5b505050505050505050505050565b6040517f42842e0e0000000000000000000000000000000000000000000000000000000081526001600160a01b038416906342842e0e9061059e903390869086906004016119a4565b600060405180830381600087803b1580156105b857600080fd5b505af11580156105cc573d6000803e3d6000fd5b50505050505050565b60608167ffffffffffffffff811180156105ee57600080fd5b5060405190808252806020026020018201604052801561062257816020015b606081526020019060019003908161060d5790505b50905060005b828110156106d1576000803086868581811061064057fe5b90506020028101906106529190611e40565b604051610660929190611854565b600060405180830381855af49150503d806000811461069b576040519150601f19603f3d011682016040523d82523d6000602084013e6106a0565b606091505b50915091506106af8282610e2d565b808484815181106106bc57fe5b60209081029190910101525050600101610628565b5092915050565b6040517f745a41bc0000000000000000000000000000000000000000000000000000000081526001600160a01b0386169063745a41bc90610723908790879087908790600401611b38565b600060405180830381600087803b15801561073d57600080fd5b505af1158015610751573d6000803e3d6000fd5b505050505050505050565b600082600381111561076a57fe5b1415610811576040517f23b872dd0000000000000000000000000000000000000000000000000000000081526001600160a01b038616906323b872dd906107b9903390889088906004016119a4565b602060405180830381600087803b1580156107d357600080fd5b505af11580156107e7573d6000803e3d6000fd5b505050506040513d601f19601f8201168201806040525081019061080b9190611406565b506108cc565b600182600381111561081f57fe5b14156108b4576040517fd3f4ec6f00000000000000000000000000000000000000000000000000000000815273c1e088fc1323b20bcbee9bd1b9fc9546db5624c59063d3f4ec6f9061087d9088903390899089908890600401611d3e565b600060405180830381600087803b15801561089757600080fd5b505af11580156108ab573d6000803e3d6000fd5b505050506108cc565b60405162461bcd60e51b81526004016103f490611db6565b5050505050565b6040516308e1a0ab60e01b815260609073b1b300007b05d708a4bbfe71aaf64fe0b27a0125906308e1a0ab90849061090f908790600401611e24565b6000604051808303818588803b15801561092857600080fd5b505af115801561093c573d6000803e3d6000fd5b50505050506040513d6000823e601f3d908101601f191682016040526109659190810190611426565b9050610332610e78565b6040517f7c516e9400000000000000000000000000000000000000000000000000000000815273c1e088fc1323b20bcbee9bd1b9fc9546db5624c590637c516e9490610519908b908b908b908b908b908b908b908b90600401611a0b565b60006001600160a01b03861633146109f75760405162461bcd60e51b81526004016103f490611d7f565b6040517f9e32d26100000000000000000000000000000000000000000000000000000000815273c1e088fc1323b20bcbee9bd1b9fc9546db5624c590639e32d26190610a4f9033908990899089908990600401611909565b602060405180830381600087803b158015610a6957600080fd5b505af1158015610a7d573d6000803e3d6000fd5b505050506040513d601f19601f82011682018060405250810190610aa1919061174f565b9695505050505050565b6001600160a01b038616632eb2c2d633878787878760006040519080825280601f01601f191660200182016040528015610aec576020820181803683370190505b506040518863ffffffff1660e01b8152600401610b0f9796959493929190611942565b600060405180830381600087803b158015610b2957600080fd5b505af1158015610b3d573d6000803e3d6000fd5b50505050505050505050565b6040517fd505accf0000000000000000000000000000000000000000000000000000000081526001600160a01b0389169063d505accf90610519908a908a908a908a908a908a908a90600401611af7565b6040517f1c0a0d5e00000000000000000000000000000000000000000000000000000000815260609073b1b300007b05d708a4bbfe71aaf64fe0b27a012590631c0a0d5e908490610bf19088908890600401611bc6565b6000604051808303818588803b158015610c0a57600080fd5b505af1158015610c1e573d6000803e3d6000fd5b50505050506040513d6000823e601f3d908101601f19168201604052610c4791908101906112a3565b9050610c51610e78565b9392505050565b6040517fcabec62b00000000000000000000000000000000000000000000000000000000815260609073b1b300007b05d708a4bbfe71aaf64fe0b27a01259063cabec62b90610cad9086908690600401611c79565b600060405180830381600087803b158015610cc757600080fd5b505af1158015610cdb573d6000803e3d6000fd5b505050506040513d6000823e601f3d908101601f19168201604052610c5191908101906112a3565b6040517fd5770dc700000000000000000000000000000000000000000000000000000000815273c1e088fc1323b20bcbee9bd1b9fc9546db5624c59063d5770dc790610d65908d908d908d908d908d908d908d908d908d908d90600401611a55565b600060405180830381600087803b158015610d7f57600080fd5b505af1158015610d93573d6000803e3d6000fd5b5050505050505050505050505050565b60606000610db46020840184611002565b6001600160a01b0316610dca6020850185611e40565b604051610dd8929190611854565b600060405180830381855afa9150503d8060008114610e13576040519150601f19603f3d011682016040523d82523d6000602084013e610e18565b606091505b5092509050610e278183610e2d565b50919050565b81610e7457604481511015610e4157600080fd5b60048101905080806020019051810190610e5b9190611693565b60405162461bcd60e51b81526004016103f49190611d2b565b5050565b6000610e82610f25565b9050600047118015610e9957508060490154600214155b15610f22576040805160008082526020820190925233904790604051610ebf9190611864565b60006040518083038185875af1925050503d8060008114610efc576040519150601f19603f3d011682016040523d82523d6000602084013e610f01565b606091505b5050905080610e745760405162461bcd60e51b81526004016103f490611ded565b50565b600090565b6000610f3d610f3884611ec7565b611e85565b9050828152838383011115610f5157600080fd5b610c51836020830184611f2e565b60008083601f840112610f70578182fd5b50813567ffffffffffffffff811115610f87578182fd5b6020830191508360208083028501011115610fa157600080fd5b9250929050565b600082601f830112610fb8578081fd5b610c5183835160208501610f2a565b600060408284031215610e27578081fd5b803563ffffffff81168114610fec57600080fd5b919050565b803560ff81168114610fec57600080fd5b600060208284031215611013578081fd5b8135610c5181611f5e565b600080600080600080600060a0888a031215611038578283fd5b873561104381611f5e565b9650602088013561105381611f5e565b9550604088013561106381611f5e565b9450606088013567ffffffffffffffff8082111561107f578485fd5b61108b8b838c01610f5f565b909650945060808a01359150808211156110a3578384fd5b506110b08a828b01610f5f565b989b979a50959850939692959293505050565b600080600080600080600080610100898b0312156110df578182fd5b88356110ea81611f5e565b975060208901356110fa81611f5e565b9650604089013561110a81611f5e565b9550606089013594506080890135935061112660a08a01610ff1565b925060c0890135915060e089013590509295985092959890939650565b600080600080600060a0868803121561115a578283fd5b853561116581611f5e565b9450602086013561117581611f5e565b9350604086013561118581611f5e565b925061119360608701610fd8565b949793965091946080013592915050565b6000806000806000806000806000806101008b8d0312156111c3578384fd5b8a356111ce81611f5e565b995060208b01356111de81611f5e565b985060408b013567ffffffffffffffff808211156111fa578586fd5b6112068e838f01610f5f565b909a50985060608d013591508082111561121e578586fd5b5061122b8d828e01610f5f565b90975095505060808b0135935061124460a08c01610ff1565b925060c08b0135915060e08b013590509295989b9194979a5092959850565b60008060208385031215611275578182fd5b823567ffffffffffffffff81111561128b578283fd5b61129785828601610f5f565b90969095509350505050565b600060208083850312156112b5578182fd5b825167ffffffffffffffff8111156112cb578283fd5b8301601f810185136112db578283fd5b80516112e9610f3882611ea9565b81815283810190838501865b8481101561131e5761130c8a888451890101610fa8565b845292860192908601906001016112f5565b509098975050505050505050565b600080600060408486031215611340578081fd5b833567ffffffffffffffff811115611356578182fd5b61136286828701610f5f565b909790965060209590950135949350505050565b60006020808385031215611388578182fd5b825167ffffffffffffffff81111561139e578283fd5b8301601f810185136113ae578283fd5b80516113bc610f3882611ea9565b81815283810190838501858402850186018910156113d8578687fd5b8694505b838510156113fa5780518352600194909401939185019185016113dc565b50979650505050505050565b600060208284031215611417578081fd5b81518015158114610c51578182fd5b600060208284031215611437578081fd5b815167ffffffffffffffff81111561144d578182fd5b61145984828501610fa8565b949350505050565b60008060008060008060808789031215611479578384fd5b863561148481611f5e565b9550602087013561149481611f5e565b9450604087013567ffffffffffffffff808211156114b0578586fd5b6114bc8a838b01610f5f565b909650945060608901359150808211156114d4578384fd5b506114e189828a01610f5f565b979a9699509497509295939492505050565b60008060008060808587031215611508578182fd5b843561151381611f5e565b9350602085013561152381611f5e565b93969395505050506040820135916060013590565b600080600080600060a0868803121561154f578283fd5b853561155a81611f5e565b9450602086013561156a81611f5e565b935060408601359250606086013560048110611584578182fd5b9150608086013560028110611597578182fd5b809150509295509295909350565b600080600080600060a086880312156115bc578283fd5b85356115c781611f5e565b945060208601356115d781611f5e565b93506040860135925060608601359150608086013567ffffffffffffffff811115611600578182fd5b8601601f81018813611610578182fd5b803561161e610f3882611ec7565b818152896020838501011115611632578384fd5b81602084016020830137908101602001929092525093969295509093509190565b600080600060608486031215611667578081fd5b833561167281611f5e565b9250602084013561168281611f5e565b929592945050506040919091013590565b6000602082840312156116a4578081fd5b815167ffffffffffffffff8111156116ba578182fd5b8201601f810184136116ca578182fd5b61145984825160208401610f2a565b6000602082840312156116ea578081fd5b813567ffffffffffffffff811115611700578182fd5b61145984828501610fc7565b6000806040838503121561171e578182fd5b823567ffffffffffffffff811115611734578283fd5b61174085828601610fc7565b95602094909401359450505050565b600060208284031215611760578081fd5b5051919050565b60008284527f07ffffffffffffffffffffffffffffffffffffffffffffffffffffffffffffff831115611798578081fd5b6020830280836020870137939093016020019283525090919050565b60008284528282602086013780602084860101526020601f19601f85011685010190509392505050565b600081518084526117f6816020860160208601611f2e565b601f01601f19169290920160200192915050565b6000813561181781611f5e565b6001600160a01b0316835261182f6020830183611ee9565b604060208601526118446040860182846117b4565b95945050505050565b60ff169052565b6000828483379101908152919050565b60008251611876818460208701611f2e565b9190910192915050565b600060a082016001600160a01b03808b1684526020818b1681860152818a16604086015260a0606086015282915087835260c085019150889250835b888110156118e55763ffffffff6118d285610fd8565b16835292810192918101916001016118bc565b505083810360808501526118fa818688611767565b9b9a5050505050505050505050565b6001600160a01b039586168152938516602085015291909316604083015263ffffffff9092166060820152608081019190915260a00190565b60006001600160a01b03808a16835280891660208401525060a0604083015261196f60a083018789611767565b8281036060840152611982818688611767565b9050828103608084015261199681856117de565b9a9950505050505050505050565b6001600160a01b039384168152919092166020820152604081019190915260600190565b60006001600160a01b03808816835280871660208401525084604083015283606083015260a06080830152611a0060a08301846117de565b979650505050505050565b6001600160a01b03988916815296881660208801529490961660408601526060850192909252608084015260ff1660a083015260c082019290925260e08101919091526101000190565b60006101008083016001600160a01b03808f1685526020818f16818701528360408701528293508c8352610120860193508d9250845b8d811015611ab2578335611a9e81611f5e565b831685529381019392810192600101611a8b565b505050508281036060840152611ac981898b611767565b915050856080830152611adf60a083018661184d565b60c082019390935260e0015298975050505050505050565b6001600160a01b0397881681529590961660208601526040850193909352606084019190915260ff16608083015260a082015260c081019190915260e00190565b60006001600160a01b038616825284602083015283604083015260806060830152610aa160808301846117de565b6000602080830181845280855180835260408601915060408482028701019250838701855b82811015611bb957603f19888603018452611ba78583516117de565b94509285019290850190600101611b8b565b5092979650505050505050565b602080825281810183905260009060408084018583028501820187855b8881101561131e57878303603f190184528135368b9003605e19018112611c08578788fd5b8a0160608135611c1781611f5e565b6001600160a01b03168552611c2e82890183611ee9565b828a880152611c4083880182846117b4565b92505050611c5087830183611ee9565b925085820388870152611c648284836117b4565b96890196955050509186019150600101611be3565b602080825281810183905260009060408482028401810190840186845b87811015611cda57868403603f190183528135368a9003603e19018112611cbb578687fd5b611cc7858b830161180a565b9450509184019190840190600101611c96565b5091979650505050505050565b6020808252825182820181905260009190848201906040850190845b81811015611d1f57835183529284019291840191600101611d03565b50909695505050505050565b600060208252610c5160208301846117de565b6001600160a01b0386811682528581166020830152841660408201526060810183905260a0810160028310611d6f57fe5b8260808301529695505050505050565b6020808252600e908201527f696e76616c69642073656e646572000000000000000000000000000000000000604082015260600190565b60208082526012908201527f4d6f6465206e6f7420737570706f727465640000000000000000000000000000604082015260600190565b60208082526014908201527f457468207472616e73666572204661696c65642e000000000000000000000000604082015260600190565b600060208252610c51602083018461180a565b90815260200190565b6000808335601e19843603018112611e56578283fd5b83018035915067ffffffffffffffff821115611e70578283fd5b602001915036819003821315610fa157600080fd5b60405181810167ffffffffffffffff81118282101715611ea157fe5b604052919050565b600067ffffffffffffffff821115611ebd57fe5b5060209081020190565b600067ffffffffffffffff821115611edb57fe5b50601f01601f191660200190565b6000808335601e19843603018112611eff578283fd5b830160208101925035905067ffffffffffffffff811115611f1f57600080fd5b803603831315610fa157600080fd5b60005b83811015611f49578181015183820152602001611f31565b83811115611f58576000848401525b50505050565b6001600160a01b0381168114610f2257600080fdfea26469706673582212200adc6d2f2fa4ee0477e0f2eaa8d5b3853afcbf8c09ab1256a659db64fa97182a64736f6c63430007060033",
  "linkReferences": {},
  "deployedLinkReferences": {}
}