{
  "_format": "hh-sol-artifact-1",
  "contractName": "Pipeline",
  "sourceName": "contracts/pipeline/Pipeline.sol",
  "abi": [
    {
      "inputs": [
        {
          "components": [
            {
              "internalType": "address",
              "name": "target",
              "type": "address"
            },
            {
              "internalType": "bytes",
              "name": "callData",
              "type": "bytes"
            },
            {
              "internalType": "bytes",
              "name": "advancedData",
              "type": "bytes"
            }
          ],
          "internalType": "struct AdvancedPipe[]",
          "name": "pipes",
          "type": "tuple[]"
        }
      ],
      "name": "advancedPipe",
      "outputs": [
        {
          "internalType": "bytes[]",
          "name": "results",
          "type": "bytes[]"
        }
      ],
      "stateMutability": "payable",
      "type": "function"
    },
    {
      "inputs": [
        {
          "components": [
            {
              "internalType": "address",
              "name": "target",
              "type": "address"
            },
            {
              "internalType": "bytes",
              "name": "data",
              "type": "bytes"
            }
          ],
          "internalType": "struct Pipe[]",
          "name": "pipes",
          "type": "tuple[]"
        }
      ],
      "name": "multiPipe",
      "outputs": [
        {
          "internalType": "bytes[]",
          "name": "results",
          "type": "bytes[]"
        }
      ],
      "stateMutability": "payable",
      "type": "function"
    },
    {
      "inputs": [
        {
          "components": [
            {
              "internalType": "address",
              "name": "target",
              "type": "address"
            },
            {
              "internalType": "bytes",
              "name": "data",
              "type": "bytes"
            }
          ],
          "internalType": "struct Pipe",
          "name": "p",
          "type": "tuple"
        }
      ],
      "name": "pipe",
      "outputs": [
        {
          "internalType": "bytes",
          "name": "result",
          "type": "bytes"
        }
      ],
      "stateMutability": "payable",
      "type": "function"
    }
  ],
  "bytecode": "0x608060405234801561001057600080fd5b50610af2806100206000396000f3fe6080604052600436106100345760003560e01c806308e1a0ab146100395780631c0a0d5e14610062578063cabec62b14610082575b600080fd5b61004c6100473660046107ec565b610095565b6040516100599190610989565b60405180910390f35b6100756100703660046106eb565b6100c0565b6040516100599190610929565b61007561009036600461072b565b610168565b60606100ba6100a760208401846106b0565b6100b460208501856109f9565b34610244565b92915050565b60608167ffffffffffffffff811180156100d957600080fd5b5060405190808252806020026020018201604052801561010d57816020015b60608152602001906001900390816100f85790505b50905060005b828110156101615761014284848381811061012a57fe5b905060200281019061013c9190610a3e565b836102ca565b82828151811061014e57fe5b6020908102919091010152600101610113565b5092915050565b60608167ffffffffffffffff8111801561018157600080fd5b506040519080825280602002602001820160405280156101b557816020015b60608152602001906001900390816101a05790505b50905060005b82811015610161576102258484838181106101d257fe5b90506020028101906101e49190610a53565b6101f29060208101906106b0565b8585848181106101fe57fe5b90506020028101906102109190610a53565b61021e9060208101906109f9565b6000610244565b82828151811061023157fe5b60209081029190910101526001016101bb565b606060008573ffffffffffffffffffffffffffffffffffffffff168386866040516102709291906108fd565b60006040518083038185875af1925050503d80600081146102ad576040519150601f19603f3d011682016040523d82523d6000602084013e6102b2565b606091505b50925090506102c18183610381565b50949350505050565b606060006102e36102de60408601866109f9565b6103d5565b90506102f260408501856109f9565b60008181106102fd57fe5b909101356001600160f81b0319161515905061033d5761033661032360208601866106b0565b61033060208701876109f9565b84610244565b9150610161565b61036061034d60208601866109f9565b61035a60408801886109f9565b8761040c565b915061037961037260208601866106b0565b8383610587565b949350505050565b816103d15760448151101561039557600080fd5b600481019050808060200190518101906103af919061076b565b60405162461bcd60e51b81526004016103c89190610989565b60405180910390fd5b5050565b6000828260018181106103e457fe5b909101356001600160f81b03191615159050610402575060006100ba565b5001601f19013590565b606060008484600081811061041d57fe5b909101356001600160f81b0319169150507f01000000000000000000000000000000000000000000000000000000000000008114156104b157600061046485870187610753565b90506104a988888080601f01602080910402602001604051908101604052809392919081815260200183838082843760009201919091525088925085915061060a9050565b92505061057d565b7f02000000000000000000000000000000000000000000000000000000000000006001600160f81b0319821614156105655760006104f185870187610824565b91505087878080601f01602080910402602001604051908101604052809392919081815260200183838082843760009201829052509396505050505b815181101561055e57610554848684848151811061054757fe5b602002602001015161060a565b935060010161052d565b505061057d565b60405162461bcd60e51b81526004016103c89061099c565b5095945050505050565b606060008473ffffffffffffffffffffffffffffffffffffffff1683856040516105b1919061090d565b60006040518083038185875af1925050503d80600081146105ee576040519150601f19603f3d011682016040523d82523d6000602084013e6105f3565b606091505b50925090506106028183610381565b509392505050565b606060008360b0601085901b901c60001c8151811061062557fe5b60209081029190910101519050610651818669ffffffffffffffffffff605087901c811690871661065a565b95945050505050565b9201519181019190915290565b60008083601f840112610678578182fd5b50813567ffffffffffffffff81111561068f578182fd5b60208301915083602080830285010111156106a957600080fd5b9250929050565b6000602082840312156106c1578081fd5b813573ffffffffffffffffffffffffffffffffffffffff811681146106e4578182fd5b9392505050565b600080602083850312156106fd578081fd5b823567ffffffffffffffff811115610713578182fd5b61071f85828601610667565b90969095509350505050565b6000806020838503121561073d578182fd5b823567ffffffffffffffff811115610713578283fd5b600060208284031215610764578081fd5b5035919050565b60006020828403121561077c578081fd5b815167ffffffffffffffff80821115610793578283fd5b818401915084601f8301126107a6578283fd5b8151818111156107b257fe5b6107c5601f8201601f1916602001610a68565b91508082528560208285010111156107db578384fd5b6102c1816020840160208601610a8c565b6000602082840312156107fd578081fd5b813567ffffffffffffffff811115610813578182fd5b8201604081850312156106e4578182fd5b60008060408385031215610836578182fd5b8235915060208084013567ffffffffffffffff80821115610855578384fd5b818601915086601f830112610868578384fd5b81358181111561087457fe5b8381029150610884848301610a68565b8181528481019084860184860187018b101561089e578788fd5b8795505b838610156108c05780358352600195909501949186019186016108a2565b508096505050505050509250929050565b600081518084526108e9816020860160208601610a8c565b601f01601f19169290920160200192915050565b6000828483379101908152919050565b6000825161091f818460208701610a8c565b9190910192915050565b6000602080830181845280855180835260408601915060408482028701019250838701855b8281101561097c57603f1988860301845261096a8583516108d1565b9450928501929085019060010161094e565b5092979650505050505050565b6000602082526106e460208301846108d1565b60208082526025908201527f46756e6374696f6e3a20416476616e6365642054797065206e6f74207375707060408201527f6f72746564000000000000000000000000000000000000000000000000000000606082015260800190565b6000808335601e19843603018112610a0f578283fd5b83018035915067ffffffffffffffff821115610a29578283fd5b6020019150368190038213156106a957600080fd5b60008235605e1983360301811261091f578182fd5b60008235603e1983360301811261091f578182fd5b60405181810167ffffffffffffffff81118282101715610a8457fe5b604052919050565b60005b83811015610aa7578181015183820152602001610a8f565b83811115610ab6576000848401525b5050505056fea26469706673582212209bf44cf53d1d381731761fb3f6cc3f75f24ff3fc8d6b4fd0181d24678464a51f64736f6c63430007060033",
  "linkReferences": {},
  "deployedLinkReferences": {}
}