{
  "_format": "hh-sol-artifact-1",
  "contractName": "Root",
  "sourceName": "contracts/tokens/Root.sol",
  "abi": [
    {
      "anonymous": false,
      "inputs": [
        {
          "indexed": true,
          "internalType": "address",
          "name": "token",
          "type": "address"
        }
      ],
      "name": "AddWhitelistToken",
      "type": "event"
    },
    {
      "anonymous": false,
      "inputs": [
        {
          "indexed": false,
          "internalType": "address",
          "name": "previousAdmin",
          "type": "address"
        },
        {
          "indexed": false,
          "internalType": "address",
          "name": "newAdmin",
          "type": "address"
        }
      ],
      "name": "AdminChanged",
      "type": "event"
    },
    {
      "anonymous": false,
      "inputs": [
        {
          "indexed": true,
          "internalType": "address",
          "name": "owner",
          "type": "address"
        },
        {
          "indexed": true,
          "internalType": "address",
          "name": "spender",
          "type": "address"
        },
        {
          "indexed": false,
          "internalType": "uint256",
          "name": "value",
          "type": "uint256"
        }
      ],
      "name": "Approval",
      "type": "event"
    },
    {
      "anonymous": false,
      "inputs": [
        {
          "indexed": true,
          "internalType": "address",
          "name": "beacon",
          "type": "address"
        }
      ],
      "name": "BeaconUpgraded",
      "type": "event"
    },
    {
      "anonymous": false,
      "inputs": [
        {
          "indexed": false,
          "internalType": "uint8",
          "name": "version",
          "type": "uint8"
        }
      ],
      "name": "Initialized",
      "type": "event"
    },
    {
      "anonymous": false,
      "inputs": [
        {
          "indexed": true,
          "internalType": "address",
          "name": "account",
          "type": "address"
        },
        {
          "components": [
            {
              "internalType": "address",
              "name": "token",
              "type": "address"
            },
            {
              "internalType": "uint32[]",
              "name": "seasons",
              "type": "uint32[]"
            },
            {
              "internalType": "uint256[]",
              "name": "amounts",
              "type": "uint256[]"
            }
          ],
          "indexed": false,
          "internalType": "struct DepositTransfer[]",
          "name": "deposits",
          "type": "tuple[]"
        },
        {
          "indexed": false,
          "internalType": "uint256",
          "name": "bdv",
          "type": "uint256"
        },
        {
          "indexed": false,
          "internalType": "uint256",
          "name": "stalk",
          "type": "uint256"
        },
        {
          "indexed": false,
          "internalType": "uint256",
          "name": "seeds",
          "type": "uint256"
        },
        {
          "indexed": false,
          "internalType": "uint256",
          "name": "shares",
          "type": "uint256"
        }
      ],
      "name": "Mint",
      "type": "event"
    },
    {
      "anonymous": false,
      "inputs": [
        {
          "indexed": true,
          "internalType": "address",
          "name": "previousOwner",
          "type": "address"
        },
        {
          "indexed": true,
          "internalType": "address",
          "name": "newOwner",
          "type": "address"
        }
      ],
      "name": "OwnershipTransferred",
      "type": "event"
    },
    {
      "anonymous": false,
      "inputs": [
        {
          "indexed": true,
          "internalType": "address",
          "name": "account",
          "type": "address"
        },
        {
          "components": [
            {
              "internalType": "address",
              "name": "token",
              "type": "address"
            },
            {
              "internalType": "uint32[]",
              "name": "seasons",
              "type": "uint32[]"
            },
            {
              "internalType": "uint256[]",
              "name": "amounts",
              "type": "uint256[]"
            }
          ],
          "indexed": false,
          "internalType": "struct DepositTransfer[]",
          "name": "deposits",
          "type": "tuple[]"
        },
        {
          "indexed": false,
          "internalType": "uint256",
          "name": "bdv",
          "type": "uint256"
        },
        {
          "indexed": false,
          "internalType": "uint256",
          "name": "stalk",
          "type": "uint256"
        },
        {
          "indexed": false,
          "internalType": "uint256",
          "name": "seeds",
          "type": "uint256"
        },
        {
          "indexed": false,
          "internalType": "uint256",
          "name": "shares",
          "type": "uint256"
        }
      ],
      "name": "Redeem",
      "type": "event"
    },
    {
      "anonymous": false,
      "inputs": [
        {
          "indexed": true,
          "internalType": "address",
          "name": "token",
          "type": "address"
        }
      ],
      "name": "RemoveWhitelistToken",
      "type": "event"
    },
    {
      "anonymous": false,
      "inputs": [
        {
          "indexed": true,
          "internalType": "address",
          "name": "from",
          "type": "address"
        },
        {
          "indexed": true,
          "internalType": "address",
          "name": "to",
          "type": "address"
        },
        {
          "indexed": false,
          "internalType": "uint256",
          "name": "value",
          "type": "uint256"
        }
      ],
      "name": "Transfer",
      "type": "event"
    },
    {
      "anonymous": false,
      "inputs": [
        {
          "indexed": true,
          "internalType": "address",
          "name": "implementation",
          "type": "address"
        }
      ],
      "name": "Upgraded",
      "type": "event"
    },
    {
      "inputs": [],
      "name": "BEANSTALK_ADDRESS",
      "outputs": [
        {
          "internalType": "address",
          "name": "",
          "type": "address"
        }
      ],
      "stateMutability": "view",
      "type": "function"
    },
    {
      "inputs": [],
      "name": "DOMAIN_SEPARATOR",
      "outputs": [
        {
          "internalType": "bytes32",
          "name": "",
          "type": "bytes32"
        }
      ],
      "stateMutability": "view",
      "type": "function"
    },
    {
      "inputs": [
        {
          "internalType": "address",
          "name": "token",
          "type": "address"
        }
      ],
      "name": "addWhitelistToken",
      "outputs": [],
      "stateMutability": "nonpayable",
      "type": "function"
    },
    {
      "inputs": [
        {
          "internalType": "address",
          "name": "owner",
          "type": "address"
        },
        {
          "internalType": "address",
          "name": "spender",
          "type": "address"
        }
      ],
      "name": "allowance",
      "outputs": [
        {
          "internalType": "uint256",
          "name": "",
          "type": "uint256"
        }
      ],
      "stateMutability": "view",
      "type": "function"
    },
    {
      "inputs": [
        {
          "internalType": "address",
          "name": "spender",
          "type": "address"
        },
        {
          "internalType": "uint256",
          "name": "amount",
          "type": "uint256"
        }
      ],
      "name": "approve",
      "outputs": [
        {
          "internalType": "bool",
          "name": "",
          "type": "bool"
        }
      ],
      "stateMutability": "nonpayable",
      "type": "function"
    },
    {
      "inputs": [
        {
          "internalType": "address",
          "name": "account",
          "type": "address"
        }
      ],
      "name": "balanceOf",
      "outputs": [
        {
          "internalType": "uint256",
          "name": "",
          "type": "uint256"
        }
      ],
      "stateMutability": "view",
      "type": "function"
    },
    {
      "inputs": [],
      "name": "bdvPerRoot",
      "outputs": [
        {
          "internalType": "uint256",
          "name": "",
          "type": "uint256"
        }
      ],
      "stateMutability": "view",
      "type": "function"
    },
    {
      "inputs": [
        {
          "internalType": "address",
          "name": "token",
          "type": "address"
        },
        {
          "internalType": "uint32",
          "name": "season",
          "type": "uint32"
        }
      ],
      "name": "convertLambdaToLambda",
      "outputs": [],
      "stateMutability": "nonpayable",
      "type": "function"
    },
    {
      "inputs": [
        {
          "internalType": "address[]",
          "name": "tokens",
          "type": "address[]"
        },
        {
          "internalType": "uint32[]",
          "name": "seasons",
          "type": "uint32[]"
        }
      ],
      "name": "convertLambdasToLambdas",
      "outputs": [],
      "stateMutability": "nonpayable",
      "type": "function"
    },
    {
      "inputs": [],
      "name": "decimals",
      "outputs": [
        {
          "internalType": "uint8",
          "name": "",
          "type": "uint8"
        }
      ],
      "stateMutability": "view",
      "type": "function"
    },
    {
      "inputs": [
        {
          "internalType": "address",
          "name": "spender",
          "type": "address"
        },
        {
          "internalType": "uint256",
          "name": "subtractedValue",
          "type": "uint256"
        }
      ],
      "name": "decreaseAllowance",
      "outputs": [
        {
          "internalType": "bool",
          "name": "",
          "type": "bool"
        }
      ],
      "stateMutability": "nonpayable",
      "type": "function"
    },
    {
      "inputs": [],
      "name": "earn",
      "outputs": [],
      "stateMutability": "nonpayable",
      "type": "function"
    },
    {
      "inputs": [
        {
          "internalType": "address",
          "name": "spender",
          "type": "address"
        },
        {
          "internalType": "uint256",
          "name": "addedValue",
          "type": "uint256"
        }
      ],
      "name": "increaseAllowance",
      "outputs": [
        {
          "internalType": "bool",
          "name": "",
          "type": "bool"
        }
      ],
      "stateMutability": "nonpayable",
      "type": "function"
    },
    {
      "inputs": [
        {
          "internalType": "string",
          "name": "name",
          "type": "string"
        },
        {
          "internalType": "string",
          "name": "symbol",
          "type": "string"
        }
      ],
      "name": "initialize",
      "outputs": [],
      "stateMutability": "nonpayable",
      "type": "function"
    },
    {
      "inputs": [
        {
          "components": [
            {
              "internalType": "address",
              "name": "token",
              "type": "address"
            },
            {
              "internalType": "uint32[]",
              "name": "seasons",
              "type": "uint32[]"
            },
            {
              "internalType": "uint256[]",
              "name": "amounts",
              "type": "uint256[]"
            }
          ],
          "internalType": "struct DepositTransfer[]",
          "name": "depositTransfers",
          "type": "tuple[]"
        },
        {
          "internalType": "enum To",
          "name": "mode",
          "type": "uint8"
        }
      ],
      "name": "mint",
      "outputs": [
        {
          "internalType": "uint256",
          "name": "",
          "type": "uint256"
        }
      ],
      "stateMutability": "nonpayable",
      "type": "function"
    },
    {
      "inputs": [
        {
          "components": [
            {
              "internalType": "address",
              "name": "token",
              "type": "address"
            },
            {
              "internalType": "uint32[]",
              "name": "seasons",
              "type": "uint32[]"
            },
            {
              "internalType": "uint256[]",
              "name": "amounts",
              "type": "uint256[]"
            }
          ],
          "internalType": "struct DepositTransfer[]",
          "name": "depositTransfers",
          "type": "tuple[]"
        },
        {
          "internalType": "enum To",
          "name": "mode",
          "type": "uint8"
        },
        {
          "internalType": "address",
          "name": "token",
          "type": "address"
        },
        {
          "internalType": "uint256",
          "name": "value",
          "type": "uint256"
        },
        {
          "internalType": "uint256",
          "name": "deadline",
          "type": "uint256"
        },
        {
          "internalType": "uint8",
          "name": "v",
          "type": "uint8"
        },
        {
          "internalType": "bytes32",
          "name": "r",
          "type": "bytes32"
        },
        {
          "internalType": "bytes32",
          "name": "s",
          "type": "bytes32"
        }
      ],
      "name": "mintWithTokenPermit",
      "outputs": [
        {
          "internalType": "uint256",
          "name": "",
          "type": "uint256"
        }
      ],
      "stateMutability": "nonpayable",
      "type": "function"
    },
    {
      "inputs": [
        {
          "components": [
            {
              "internalType": "address",
              "name": "token",
              "type": "address"
            },
            {
              "internalType": "uint32[]",
              "name": "seasons",
              "type": "uint32[]"
            },
            {
              "internalType": "uint256[]",
              "name": "amounts",
              "type": "uint256[]"
            }
          ],
          "internalType": "struct DepositTransfer[]",
          "name": "depositTransfers",
          "type": "tuple[]"
        },
        {
          "internalType": "enum To",
          "name": "mode",
          "type": "uint8"
        },
        {
          "internalType": "address[]",
          "name": "tokens",
          "type": "address[]"
        },
        {
          "internalType": "uint256[]",
          "name": "values",
          "type": "uint256[]"
        },
        {
          "internalType": "uint256",
          "name": "deadline",
          "type": "uint256"
        },
        {
          "internalType": "uint8",
          "name": "v",
          "type": "uint8"
        },
        {
          "internalType": "bytes32",
          "name": "r",
          "type": "bytes32"
        },
        {
          "internalType": "bytes32",
          "name": "s",
          "type": "bytes32"
        }
      ],
      "name": "mintWithTokensPermit",
      "outputs": [
        {
          "internalType": "uint256",
          "name": "",
          "type": "uint256"
        }
      ],
      "stateMutability": "nonpayable",
      "type": "function"
    },
    {
      "inputs": [],
      "name": "name",
      "outputs": [
        {
          "internalType": "string",
          "name": "",
          "type": "string"
        }
      ],
      "stateMutability": "view",
      "type": "function"
    },
    {
      "inputs": [
        {
          "internalType": "address",
          "name": "owner",
          "type": "address"
        }
      ],
      "name": "nonces",
      "outputs": [
        {
          "internalType": "uint256",
          "name": "",
          "type": "uint256"
        }
      ],
      "stateMutability": "view",
      "type": "function"
    },
    {
      "inputs": [],
      "name": "owner",
      "outputs": [
        {
          "internalType": "address",
          "name": "",
          "type": "address"
        }
      ],
      "stateMutability": "view",
      "type": "function"
    },
    {
      "inputs": [
        {
          "internalType": "address",
          "name": "owner",
          "type": "address"
        },
        {
          "internalType": "address",
          "name": "spender",
          "type": "address"
        },
        {
          "internalType": "uint256",
          "name": "value",
          "type": "uint256"
        },
        {
          "internalType": "uint256",
          "name": "deadline",
          "type": "uint256"
        },
        {
          "internalType": "uint8",
          "name": "v",
          "type": "uint8"
        },
        {
          "internalType": "bytes32",
          "name": "r",
          "type": "bytes32"
        },
        {
          "internalType": "bytes32",
          "name": "s",
          "type": "bytes32"
        }
      ],
      "name": "permit",
      "outputs": [],
      "stateMutability": "nonpayable",
      "type": "function"
    },
    {
      "inputs": [],
      "name": "proxiableUUID",
      "outputs": [
        {
          "internalType": "bytes32",
          "name": "",
          "type": "bytes32"
        }
      ],
      "stateMutability": "view",
      "type": "function"
    },
    {
      "inputs": [
        {
          "components": [
            {
              "internalType": "address",
              "name": "token",
              "type": "address"
            },
            {
              "internalType": "uint32[]",
              "name": "seasons",
              "type": "uint32[]"
            },
            {
              "internalType": "uint256[]",
              "name": "amounts",
              "type": "uint256[]"
            }
          ],
          "internalType": "struct DepositTransfer[]",
          "name": "depositTransfers",
          "type": "tuple[]"
        },
        {
          "internalType": "enum From",
          "name": "mode",
          "type": "uint8"
        }
      ],
      "name": "redeem",
      "outputs": [
        {
          "internalType": "uint256",
          "name": "",
          "type": "uint256"
        }
      ],
      "stateMutability": "nonpayable",
      "type": "function"
    },
    {
      "inputs": [
        {
          "components": [
            {
              "internalType": "address",
              "name": "token",
              "type": "address"
            },
            {
              "internalType": "uint32[]",
              "name": "seasons",
              "type": "uint32[]"
            },
            {
              "internalType": "uint256[]",
              "name": "amounts",
              "type": "uint256[]"
            }
          ],
          "internalType": "struct DepositTransfer[]",
          "name": "depositTransfers",
          "type": "tuple[]"
        },
        {
          "internalType": "enum From",
          "name": "mode",
          "type": "uint8"
        },
        {
          "internalType": "address",
          "name": "token",
          "type": "address"
        },
        {
          "internalType": "uint256",
          "name": "value",
          "type": "uint256"
        },
        {
          "internalType": "uint256",
          "name": "deadline",
          "type": "uint256"
        },
        {
          "internalType": "uint8",
          "name": "v",
          "type": "uint8"
        },
        {
          "internalType": "bytes32",
          "name": "r",
          "type": "bytes32"
        },
        {
          "internalType": "bytes32",
          "name": "s",
          "type": "bytes32"
        }
      ],
      "name": "redeemWithFarmBalancePermit",
      "outputs": [
        {
          "internalType": "uint256",
          "name": "",
          "type": "uint256"
        }
      ],
      "stateMutability": "nonpayable",
      "type": "function"
    },
    {
      "inputs": [
        {
          "internalType": "address",
          "name": "token",
          "type": "address"
        }
      ],
      "name": "removeWhitelistToken",
      "outputs": [],
      "stateMutability": "nonpayable",
      "type": "function"
    },
    {
      "inputs": [],
      "name": "renounceOwnership",
      "outputs": [],
      "stateMutability": "nonpayable",
      "type": "function"
    },
    {
      "inputs": [
        {
          "internalType": "address",
          "name": "_delegateContract",
          "type": "address"
        },
        {
          "internalType": "address",
          "name": "_delegate",
          "type": "address"
        },
        {
          "internalType": "bytes32",
          "name": "_snapshotId",
          "type": "bytes32"
        }
      ],
      "name": "setDelegate",
      "outputs": [],
      "stateMutability": "nonpayable",
      "type": "function"
    },
    {
      "inputs": [],
      "name": "symbol",
      "outputs": [
        {
          "internalType": "string",
          "name": "",
          "type": "string"
        }
      ],
      "stateMutability": "view",
      "type": "function"
    },
    {
      "inputs": [],
      "name": "totalSupply",
      "outputs": [
        {
          "internalType": "uint256",
          "name": "",
          "type": "uint256"
        }
      ],
      "stateMutability": "view",
      "type": "function"
    },
    {
      "inputs": [
        {
          "internalType": "address",
          "name": "to",
          "type": "address"
        },
        {
          "internalType": "uint256",
          "name": "amount",
          "type": "uint256"
        }
      ],
      "name": "transfer",
      "outputs": [
        {
          "internalType": "bool",
          "name": "",
          "type": "bool"
        }
      ],
      "stateMutability": "nonpayable",
      "type": "function"
    },
    {
      "inputs": [
        {
          "internalType": "address",
          "name": "from",
          "type": "address"
        },
        {
          "internalType": "address",
          "name": "to",
          "type": "address"
        },
        {
          "internalType": "uint256",
          "name": "amount",
          "type": "uint256"
        }
      ],
      "name": "transferFrom",
      "outputs": [
        {
          "internalType": "bool",
          "name": "",
          "type": "bool"
        }
      ],
      "stateMutability": "nonpayable",
      "type": "function"
    },
    {
      "inputs": [
        {
          "internalType": "address",
          "name": "newOwner",
          "type": "address"
        }
      ],
      "name": "transferOwnership",
      "outputs": [],
      "stateMutability": "nonpayable",
      "type": "function"
    },
    {
      "inputs": [],
      "name": "underlyingBdv",
      "outputs": [
        {
          "internalType": "uint256",
          "name": "",
          "type": "uint256"
        }
      ],
      "stateMutability": "view",
      "type": "function"
    },
    {
      "inputs": [
        {
          "internalType": "address",
          "name": "newImplementation",
          "type": "address"
        }
      ],
      "name": "upgradeTo",
      "outputs": [],
      "stateMutability": "nonpayable",
      "type": "function"
    },
    {
      "inputs": [
        {
          "internalType": "address",
          "name": "newImplementation",
          "type": "address"
        },
        {
          "internalType": "bytes",
          "name": "data",
          "type": "bytes"
        }
      ],
      "name": "upgradeToAndCall",
      "outputs": [],
      "stateMutability": "payable",
      "type": "function"
    },
    {
      "inputs": [
        {
          "internalType": "address",
          "name": "",
          "type": "address"
        }
      ],
      "name": "whitelisted",
      "outputs": [
        {
          "internalType": "bool",
          "name": "",
          "type": "bool"
        }
      ],
      "stateMutability": "view",
      "type": "function"
    }
  ],
  "bytecode": "0x60a06040523060601b60805234801561001757600080fd5b5060805160601c6143e6610052600039600081816107e60152818161087001528181610be701528181610c6c0152610d5201526143e66000f3fe60806040526004361061024f5760003560e01c80637ecebe0011610138578063bb9e09c8116100b0578063d5812a4b1161007f578063dd62ed3e11610064578063dd62ed3e14610676578063e9ee9107146106bc578063f2fde38b146106dc57600080fd5b8063d5812a4b14610625578063d936547e1461064557600080fd5b8063bb9e09c8146105bb578063d389800f146105d0578063d3b3f9b4146105e5578063d505accf1461060557600080fd5b806395d89b4111610107578063a457c2d7116100ec578063a457c2d714610553578063a9059cbb14610573578063aa1968271461059357600080fd5b806395d89b4114610527578063964772311461053c57600080fd5b80637ecebe0014610494578063863b1f6a146104b45780638da5cb5b146104d45780639168083c1461050757600080fd5b80633e060391116101cb57806352d1902d1161019a578063715018a61161017f578063715018a61461043f578063746c1519146104545780637b529a4f1461047457600080fd5b806352d1902d146103f457806370a082311461040957600080fd5b80633e060391146103815780634cd88b76146103a15780634f1dd0a7146103c15780634f1ef286146103e157600080fd5b8063313ce567116102225780633659cfe6116102075780633659cfe61461031f57806339509351146103415780633b788da91461036157600080fd5b8063313ce567146102ee5780633644e5151461030a57600080fd5b806306fdde0314610254578063095ea7b31461027f57806318160ddd146102af57806323b872dd146102ce575b600080fd5b34801561026057600080fd5b506102696106fc565b6040516102769190614082565b60405180910390f35b34801561028b57600080fd5b5061029f61029a36600461388c565b61078e565b6040519015158152602001610276565b3480156102bb57600080fd5b506099545b604051908152602001610276565b3480156102da57600080fd5b5061029f6102e9366004613789565b6107a6565b3480156102fa57600080fd5b5060405160128152602001610276565b34801561031657600080fd5b506102c06107cc565b34801561032b57600080fd5b5061033f61033a36600461373d565b6107db565b005b34801561034d57600080fd5b5061029f61035c36600461388c565b61095c565b34801561036d57600080fd5b5061033f61037c366004613789565b61099b565b34801561038d57600080fd5b5061033f61039c3660046138b5565b610a7d565b3480156103ad57600080fd5b5061033f6103bc366004613c35565b610a8b565b3480156103cd57600080fd5b506102c06103dc366004613954565b610bbf565b61033f6103ef36600461382d565b610bdc565b34801561040057600080fd5b506102c0610d45565b34801561041557600080fd5b506102c061042436600461373d565b6001600160a01b031660009081526097602052604090205490565b34801561044b57600080fd5b5061033f610e0a565b34801561046057600080fd5b506102c061046f366004613a40565b610e1e565b34801561048057600080fd5b5061033f61048f3660046138eb565b610e33565b3480156104a057600080fd5b506102c06104af36600461373d565b610ec7565b3480156104c057600080fd5b506102c06104cf366004613a89565b610ee7565b3480156104e057600080fd5b50610130546001600160a01b03165b6040516001600160a01b039091168152602001610276565b34801561051357600080fd5b5061033f61052236600461373d565b610fc7565b34801561053357600080fd5b5061026961101c565b34801561054857600080fd5b506102c06101635481565b34801561055f57600080fd5b5061029f61056e36600461388c565b61102b565b34801561057f57600080fd5b5061029f61058e36600461388c565b6110e0565b34801561059f57600080fd5b506104ef73c1e088fc1323b20bcbee9bd1b9fc9546db5624c581565b3480156105c757600080fd5b506102c06110ee565b3480156105dc57600080fd5b5061033f61111a565b3480156105f157600080fd5b506102c06106003660046139a6565b6111c0565b34801561061157600080fd5b5061033f6106203660046137c4565b611291565b34801561063157600080fd5b506102c0610640366004613adc565b6113f5565b34801561065157600080fd5b5061029f61066036600461373d565b6101626020526000908152604090205460ff1681565b34801561068257600080fd5b506102c0610691366004613757565b6001600160a01b03918216600090815260986020908152604080832093909416825291909152205490565b3480156106c857600080fd5b5061033f6106d736600461373d565b611456565b3480156106e857600080fd5b5061033f6106f736600461373d565b6114a8565b6060609a805461070b906142e5565b80601f0160208091040260200160405190810160405280929190818152602001828054610737906142e5565b80156107845780601f1061075957610100808354040283529160200191610784565b820191906000526020600020905b81548152906001019060200180831161076757829003601f168201915b5050505050905090565b60003361079c818585611535565b5060019392505050565b6000336107b485828561168d565b6107bf85858561171f565b60019150505b9392505050565b60006107d6611936565b905090565b306001600160a01b037f000000000000000000000000000000000000000000000000000000000000000016141561086e5760405162461bcd60e51b815260206004820152602c60248201527f46756e6374696f6e206d7573742062652063616c6c6564207468726f7567682060448201526b19195b1959d85d1958d85b1b60a21b60648201526084015b60405180910390fd5b7f00000000000000000000000000000000000000000000000000000000000000006001600160a01b03166108c97f360894a13ba1a3210667c828492db98dca3e2076cc3735a920a3ca505d382bbc546001600160a01b031690565b6001600160a01b0316146109345760405162461bcd60e51b815260206004820152602c60248201527f46756e6374696f6e206d7573742062652063616c6c6564207468726f7567682060448201526b6163746976652070726f787960a01b6064820152608401610865565b61093d816119b1565b60408051600080825260208201909252610959918391906119b9565b50565b3360008181526098602090815260408083206001600160a01b038716845290915281205490919061079c9082908690610996908790614113565b611535565b6109a3611b68565b6001600160a01b038216610a2a576040517ff0bedbe2000000000000000000000000000000000000000000000000000000008152600481018290526001600160a01b0384169063f0bedbe2906024015b600060405180830381600087803b158015610a0d57600080fd5b505af1158015610a21573d6000803e3d6000fd5b50505050505050565b6040517fbd86e508000000000000000000000000000000000000000000000000000000008152600481018290526001600160a01b03838116602483015284169063bd86e508906044016109f3565b505050565b610a878282611bc3565b5050565b600054610100900460ff1615808015610aab5750600054600160ff909116105b80610ac55750303b158015610ac5575060005460ff166001145b610b375760405162461bcd60e51b815260206004820152602e60248201527f496e697469616c697a61626c653a20636f6e747261637420697320616c72656160448201527f647920696e697469616c697a65640000000000000000000000000000000000006064820152608401610865565b6000805460ff191660011790558015610b5a576000805461ff0019166101001790555b610b648383611e1c565b610b6d83611e91565b610b75611f3b565b8015610a78576000805461ff0019169055604051600181527f7f26b83ff96e1f2b6a682f133852f6798a09c465da95921460cefb38474024989060200160405180910390a1505050565b6000610bd4610bce8486614181565b83611fae565b949350505050565b306001600160a01b037f0000000000000000000000000000000000000000000000000000000000000000161415610c6a5760405162461bcd60e51b815260206004820152602c60248201527f46756e6374696f6e206d7573742062652063616c6c6564207468726f7567682060448201526b19195b1959d85d1958d85b1b60a21b6064820152608401610865565b7f00000000000000000000000000000000000000000000000000000000000000006001600160a01b0316610cc57f360894a13ba1a3210667c828492db98dca3e2076cc3735a920a3ca505d382bbc546001600160a01b031690565b6001600160a01b031614610d305760405162461bcd60e51b815260206004820152602c60248201527f46756e6374696f6e206d7573742062652063616c6c6564207468726f7567682060448201526b6163746976652070726f787960a01b6064820152608401610865565b610d39826119b1565b610a87828260016119b9565b6000306001600160a01b037f00000000000000000000000000000000000000000000000000000000000000001614610de55760405162461bcd60e51b815260206004820152603860248201527f555550535570677261646561626c653a206d757374206e6f742062652063616c60448201527f6c6564207468726f7567682064656c656761746563616c6c00000000000000006064820152608401610865565b507f360894a13ba1a3210667c828492db98dca3e2076cc3735a920a3ca505d382bbc90565b610e12611b68565b610e1c60006120e3565b565b6000610bd4610e2d8486614181565b83612143565b60005b83811015610ec057610eb0858583818110610e6157634e487b7160e01b600052603260045260246000fd5b9050602002016020810190610e76919061373d565b848484818110610e9657634e487b7160e01b600052603260045260246000fd5b9050602002016020810190610eab9190613caf565b611bc3565b610eb98161431a565b9050610e36565b5050505050565b6001600160a01b038116600090815260fd60205260408120545b92915050565b6040517f120b57020000000000000000000000000000000000000000000000000000000081523360048201523060248201526001600160a01b0387166044820152606481018690526084810185905260ff841660a482015260c4810183905260e4810182905260009073c1e088fc1323b20bcbee9bd1b9fc9546db5624c59063120b570290610104015b600060405180830381600087803b158015610f8b57600080fd5b505af1158015610f9f573d6000803e3d6000fd5b50505050610fb98a8a90610fb39190614181565b89612143565b9a9950505050505050505050565b610fcf611b68565b6001600160a01b03811660008181526101626020526040808220805460ff19166001179055517fa54e443f26cc5ad727d621c65ab316267d303b027773376113f00c53ed7b372b9190a250565b6060609b805461070b906142e5565b3360008181526098602090815260408083206001600160a01b0387168452909152812054909190838110156110c85760405162461bcd60e51b815260206004820152602560248201527f45524332303a2064656372656173656420616c6c6f77616e63652062656c6f7760448201527f207a65726f0000000000000000000000000000000000000000000000000000006064820152608401610865565b6110d58286868403611535565b506001949350505050565b60003361079c81858561171f565b60006110f960995490565b670de0b6b3a764000061016354611110919061414b565b6107d6919061412b565b600073c1e088fc1323b20bcbee9bd1b9fc9546db5624c56001600160a01b031663779b3c5c6040518163ffffffff1660e01b8152600401602060405180830381600087803b15801561116b57600080fd5b505af115801561117f573d6000803e3d6000fd5b505050506040513d601f19601f820116820180604052508101906111a39190613c1d565b90508061016360008282546111b89190614113565b909155505050565b6040517f7c516e940000000000000000000000000000000000000000000000000000000081523360048201523060248201526001600160a01b0387166044820152606481018690526084810185905260ff841660a482015260c4810183905260e4810182905260009073c1e088fc1323b20bcbee9bd1b9fc9546db5624c590637c516e949061010401600060405180830381600087803b15801561126357600080fd5b505af1158015611277573d6000803e3d6000fd5b50505050610fb98a8a9061128b9190614181565b89611fae565b834211156112e15760405162461bcd60e51b815260206004820152601d60248201527f45524332305065726d69743a206578706972656420646561646c696e650000006044820152606401610865565b60007f6e71edae12b1b97f4d1f60370fef10105fa2faae0126114a169c64845d6126c98888886113108c6122c8565b6040805160208101969096526001600160a01b0394851690860152929091166060840152608083015260a082015260c0810186905260e001604051602081830303815290604052805190602001209050600061136b826122f0565b9050600061137b82878787612359565b9050896001600160a01b0316816001600160a01b0316146113de5760405162461bcd60e51b815260206004820152601e60248201527f45524332305065726d69743a20696e76616c6964207369676e617475726500006044820152606401610865565b6113e98a8a8a611535565b50505050505050505050565b6040517fd5770dc700000000000000000000000000000000000000000000000000000000815260009073c1e088fc1323b20bcbee9bd1b9fc9546db5624c59063d5770dc790610f7190339030908c908c908c908c908c908c90600401613e40565b61145e611b68565b6001600160a01b03811660008181526101626020526040808220805460ff19169055517ff9e330625cb712f3af7340fb3b6454be2ea9e7035659cfb1b477705786ca5d429190a250565b6114b0611b68565b6001600160a01b03811661152c5760405162461bcd60e51b815260206004820152602660248201527f4f776e61626c653a206e6577206f776e657220697320746865207a65726f206160448201527f64647265737300000000000000000000000000000000000000000000000000006064820152608401610865565b610959816120e3565b6001600160a01b0383166115b05760405162461bcd60e51b8152602060048201526024808201527f45524332303a20617070726f76652066726f6d20746865207a65726f2061646460448201527f72657373000000000000000000000000000000000000000000000000000000006064820152608401610865565b6001600160a01b03821661162c5760405162461bcd60e51b815260206004820152602260248201527f45524332303a20617070726f766520746f20746865207a65726f20616464726560448201527f73730000000000000000000000000000000000000000000000000000000000006064820152608401610865565b6001600160a01b0383811660008181526098602090815260408083209487168084529482529182902085905590518481527f8c5be1e5ebec7d5bd14f71427d1e84f3dd0314c0f7b2291e5b200ac8c7c3b925910160405180910390a3505050565b6001600160a01b038381166000908152609860209081526040808320938616835292905220546000198114611719578181101561170c5760405162461bcd60e51b815260206004820152601d60248201527f45524332303a20696e73756666696369656e7420616c6c6f77616e63650000006044820152606401610865565b6117198484848403611535565b50505050565b6001600160a01b03831661179b5760405162461bcd60e51b815260206004820152602560248201527f45524332303a207472616e736665722066726f6d20746865207a65726f20616460448201527f64726573730000000000000000000000000000000000000000000000000000006064820152608401610865565b6001600160a01b0382166118175760405162461bcd60e51b815260206004820152602360248201527f45524332303a207472616e7366657220746f20746865207a65726f206164647260448201527f65737300000000000000000000000000000000000000000000000000000000006064820152608401610865565b6001600160a01b038316600090815260976020526040902054818110156118a65760405162461bcd60e51b815260206004820152602660248201527f45524332303a207472616e7366657220616d6f756e742065786365656473206260448201527f616c616e636500000000000000000000000000000000000000000000000000006064820152608401610865565b6001600160a01b038085166000908152609760205260408082208585039055918516815290812080548492906118dd908490614113565b92505081905550826001600160a01b0316846001600160a01b03167fddf252ad1be2c89b69c2b068fc378daa952ba7f163c4a11628f55a4df523b3ef8460405161192991815260200190565b60405180910390a3611719565b60006107d67f8b73c3c69bb8fe3d512ecc4cf759cc79239f7b179b0ffacaa9a75d522b39400f61196560c95490565b60ca546040805160208101859052908101839052606081018290524660808201523060a082015260009060c0016040516020818303038152906040528051906020012090509392505050565b610959611b68565b7f4910fdfa16fed3260ed0e7147f7cc6da11a60208b5b9406d12a635614ffd91435460ff16156119ec57610a7883612381565b826001600160a01b03166352d1902d6040518163ffffffff1660e01b815260040160206040518083038186803b158015611a2557600080fd5b505afa925050508015611a55575060408051601f3d908101601f19168201909252611a5291810190613c1d565b60015b611ac75760405162461bcd60e51b815260206004820152602e60248201527f45524331393637557067726164653a206e657720696d706c656d656e7461746960448201527f6f6e206973206e6f7420555550530000000000000000000000000000000000006064820152608401610865565b7f360894a13ba1a3210667c828492db98dca3e2076cc3735a920a3ca505d382bbc8114611b5c5760405162461bcd60e51b815260206004820152602960248201527f45524331393637557067726164653a20756e737570706f727465642070726f7860448201527f6961626c655555494400000000000000000000000000000000000000000000006064820152608401610865565b50610a7883838361244c565b610130546001600160a01b03163314610e1c5760405162461bcd60e51b815260206004820181905260248201527f4f776e61626c653a2063616c6c6572206973206e6f7420746865206f776e65726044820152606401610865565b6040517f8a6a7eb40000000000000000000000000000000000000000000000000000000081523060048201526001600160a01b038316602482015263ffffffff8216604482015260009073c1e088fc1323b20bcbee9bd1b9fc9546db5624c590638a6a7eb490606401604080518083038186803b158015611c4357600080fd5b505afa158015611c57573d6000803e3d6000fd5b505050506040513d601f19601f82011682018060405250810190611c7b9190613c8c565b5060408051600180825281830190925291925060009190602080830190803683370190505090508281600081518110611cc457634e487b7160e01b600052603260045260246000fd5b63ffffffff92909216602092830291909101909101526040805160018082528183019092526000918160200160208202803683370190505090508281600081518110611d2057634e487b7160e01b600052603260045260246000fd5b60200260200101818152505060008073c1e088fc1323b20bcbee9bd1b9fc9546db5624c56001600160a01b0316633b2a1b286004878a604051602001611d6893929190614051565b60405160208183030381529060405286866040518463ffffffff1660e01b8152600401611d9793929190613f93565b60a060405180830381600087803b158015611db157600080fd5b505af1158015611dc5573d6000803e3d6000fd5b505050506040513d601f19601f82011682018060405250810190611de99190613ccb565b945094505050508181611dfc919061416a565b6101636000828254611e0e9190614113565b909155505050505050505050565b600054610100900460ff16611e875760405162461bcd60e51b815260206004820152602b60248201527f496e697469616c697a61626c653a20636f6e7472616374206973206e6f74206960448201526a6e697469616c697a696e6760a81b6064820152608401610865565b610a878282612471565b600054610100900460ff16611efc5760405162461bcd60e51b815260206004820152602b60248201527f496e697469616c697a61626c653a20636f6e7472616374206973206e6f74206960448201526a6e697469616c697a696e6760a81b6064820152608401610865565b610959816040518060400160405280600181526020017f3100000000000000000000000000000000000000000000000000000000000000815250612503565b600054610100900460ff16611fa65760405162461bcd60e51b815260206004820152602b60248201527f496e697469616c697a61626c653a20636f6e7472616374206973206e6f74206960448201526a6e697469616c697a696e6760a81b6064820152608401610865565b610e1c612588565b6000806000806000611fc18760006125fc565b92965090945092509050336000876003811115611fee57634e487b7160e01b600052602160045260246000fd5b1461208457506040517f7006e387000000000000000000000000000000000000000000000000000000008152309073c1e088fc1323b20bcbee9bd1b9fc9546db5624c590637006e38790612051908490339082908b908e90600090600401613fcc565b600060405180830381600087803b15801561206b57600080fd5b505af115801561207f573d6000803e3d6000fd5b505050505b61208e8186612c64565b336001600160a01b03167f859a659762340cd07a1ca857ddc4f9485f55dd427e3fca351c9a52b253f5cc15898686868a6040516120cf959493929190613edd565b60405180910390a250929695505050505050565b61013080546001600160a01b0383811673ffffffffffffffffffffffffffffffffffffffff19831681179093556040519116919082907f8be0079c531659141344cd1fd0a4f28419497f9722a3daafe3b4186f6b6457e090600090a35050565b60008060008060006121568760016125fc565b92965090945092509050600186600181111561218257634e487b7160e01b600052602160045260246000fd5b1415612242576121923085612de9565b6121b13073c1e088fc1323b20bcbee9bd1b9fc9546db5624c586611535565b6040517f6204aa4300000000000000000000000000000000000000000000000000000000815273c1e088fc1323b20bcbee9bd1b9fc9546db5624c590636204aa439061220b90309033908990600090600190600401614018565b600060405180830381600087803b15801561222557600080fd5b505af1158015612239573d6000803e3d6000fd5b50505050612274565b600086600181111561226457634e487b7160e01b600052602160045260246000fd5b1415612274576122743385612de9565b336001600160a01b03167f6ac93e168d031c08e2c22e09c4811299bce823b5980cad4b51805bf8405ec4bf88858585896040516122b5959493929190613edd565b60405180910390a2509195945050505050565b6001600160a01b038116600090815260fd602052604090208054600181018255905b50919050565b6000610ee16122fd611936565b836040517f19010000000000000000000000000000000000000000000000000000000000006020820152602281018390526042810182905260009060620160405160208183030381529060405280519060200120905092915050565b600080600061236a87878787612ec8565b9150915061237781612fb5565b5095945050505050565b6001600160a01b0381163b6123fe5760405162461bcd60e51b815260206004820152602d60248201527f455243313936373a206e657720696d706c656d656e746174696f6e206973206e60448201527f6f74206120636f6e7472616374000000000000000000000000000000000000006064820152608401610865565b7f360894a13ba1a3210667c828492db98dca3e2076cc3735a920a3ca505d382bbc805473ffffffffffffffffffffffffffffffffffffffff19166001600160a01b0392909216919091179055565b612455836131b6565b6000825111806124625750805b15610a785761171983836131f6565b600054610100900460ff166124dc5760405162461bcd60e51b815260206004820152602b60248201527f496e697469616c697a61626c653a20636f6e7472616374206973206e6f74206960448201526a6e697469616c697a696e6760a81b6064820152608401610865565b81516124ef90609a9060208501906134c5565b508051610a7890609b9060208401906134c5565b600054610100900460ff1661256e5760405162461bcd60e51b815260206004820152602b60248201527f496e697469616c697a61626c653a20636f6e7472616374206973206e6f74206960448201526a6e697469616c697a696e6760a81b6064820152608401610865565b81516020928301208151919092012060c99190915560ca55565b600054610100900460ff166125f35760405162461bcd60e51b815260206004820152602b60248201527f496e697469616c697a61626c653a20636f6e7472616374206973206e6f74206960448201526a6e697469616c697a696e6760a81b6064820152608401610865565b610e1c336120e3565b6040517f1c1b877200000000000000000000000000000000000000000000000000000000815230600482015260009081908190819073c1e088fc1323b20bcbee9bd1b9fc9546db5624c590631c1b877290602401600060405180830381600087803b15801561266a57600080fd5b505af115801561267e573d6000803e3d6000fd5b505060405163248b5e3960e11b81523060048201526000925073c1e088fc1323b20bcbee9bd1b9fc9546db5624c59150634916bc729060240160206040518083038186803b1580156126cf57600080fd5b505afa1580156126e3573d6000803e3d6000fd5b505050506040513d601f19601f820116820180604052508101906127079190613c1d565b6040516308eeae3160e41b815230600482015290915060009073c1e088fc1323b20bcbee9bd1b9fc9546db5624c590638eeae3109060240160206040518083038186803b15801561275757600080fd5b505afa15801561276b573d6000803e3d6000fd5b505050506040513d601f19601f8201168201806040525081019061278f9190613c1d565b905060005b88518110156129cc5761016260008a83815181106127c257634e487b7160e01b600052603260045260246000fd5b602090810291909101810151516001600160a01b031682528101919091526040016000205460ff166128365760405162461bcd60e51b815260206004820152601860248201527f546f6b656e206973206e6f742077686974656c697374656400000000000000006044820152606401610865565b600073c1e088fc1323b20bcbee9bd1b9fc9546db5624c5630d2615b18a61285d573061285f565b335b8b61286a573361286c565b305b8d868151811061288c57634e487b7160e01b600052603260045260246000fd5b6020026020010151600001518e87815181106128b857634e487b7160e01b600052603260045260246000fd5b6020026020010151602001518f88815181106128e457634e487b7160e01b600052603260045260246000fd5b6020026020010151604001516040518663ffffffff1660e01b8152600401612910959493929190613dee565b600060405180830381600087803b15801561292a57600080fd5b505af115801561293e573d6000803e3d6000fd5b505050506040513d6000823e601f3d908101601f191682016040526129669190810190613b8a565b905060005b81518110156129b95781818151811061299457634e487b7160e01b600052603260045260246000fd5b6020026020010151886129a79190614113565b97506129b28161431a565b905061296b565b5050806129c59061431a565b9050612794565b5060405163248b5e3960e11b815230600482015260009073c1e088fc1323b20bcbee9bd1b9fc9546db5624c590634916bc729060240160206040518083038186803b158015612a1a57600080fd5b505afa158015612a2e573d6000803e3d6000fd5b505050506040513d601f19601f82011682018060405250810190612a529190613c1d565b6040516308eeae3160e41b815230600482015290915060009073c1e088fc1323b20bcbee9bd1b9fc9546db5624c590638eeae3109060240160206040518083038186803b158015612aa257600080fd5b505afa158015612ab6573d6000803e3d6000fd5b505050506040513d601f19601f82011682018060405250810190612ada9190613c1d565b905060008915612b12578761016354612af39190614113565b9050612aff848361416a565b9650612b0b858461416a565b9550612b3c565b8761016354612b21919061416a565b9050612b2d828561416a565b9650612b39838661416a565b95505b6000612b4760995490565b905080612b5657879950612c4f565b8a15612bd85780612bc7612bb5612b86670de0b6b3a764000061016354600088613301909392919063ffffffff16565b612b9b87670de0b6b3a76400008b6000613301565b612bb089670de0b6b3a76400008d6000613301565b613378565b8390670de0b6b3a76400006000613301565b612bd1919061416a565b9950612c4f565b612c42612c30612c01670de0b6b3a764000061016354600187613301909392919063ffffffff16565b612c1686670de0b6b3a76400008a6001613301565b612c2b88670de0b6b3a76400008c6001613301565b613390565b8290670de0b6b3a76400006001613301565b612c4c908261416a565b99505b50610163555095989497509295509093505050565b6001600160a01b038216612ce05760405162461bcd60e51b815260206004820152602160248201527f45524332303a206275726e2066726f6d20746865207a65726f2061646472657360448201527f73000000000000000000000000000000000000000000000000000000000000006064820152608401610865565b6001600160a01b03821660009081526097602052604090205481811015612d6f5760405162461bcd60e51b815260206004820152602260248201527f45524332303a206275726e20616d6f756e7420657863656564732062616c616e60448201527f63650000000000000000000000000000000000000000000000000000000000006064820152608401610865565b6001600160a01b0383166000908152609760205260408120838303905560998054849290612d9e90849061416a565b90915550506040518281526000906001600160a01b038516907fddf252ad1be2c89b69c2b068fc378daa952ba7f163c4a11628f55a4df523b3ef9060200160405180910390a3505050565b6001600160a01b038216612e3f5760405162461bcd60e51b815260206004820152601f60248201527f45524332303a206d696e7420746f20746865207a65726f2061646472657373006044820152606401610865565b8060996000828254612e519190614113565b90915550506001600160a01b03821660009081526097602052604081208054839290612e7e908490614113565b90915550506040518181526001600160a01b038316906000907fddf252ad1be2c89b69c2b068fc378daa952ba7f163c4a11628f55a4df523b3ef9060200160405180910390a35050565b6000807f7fffffffffffffffffffffffffffffff5d576e7357a4501ddfe92f46681b20a0831115612eff5750600090506003612fac565b8460ff16601b14158015612f1757508460ff16601c14155b15612f285750600090506004612fac565b6040805160008082526020820180845289905260ff881692820192909252606081018690526080810185905260019060a0016020604051602081039080840390855afa158015612f7c573d6000803e3d6000fd5b5050604051601f1901519150506001600160a01b038116612fa557600060019250925050612fac565b9150600090505b94509492505050565b6000816004811115612fd757634e487b7160e01b600052602160045260246000fd5b1415612fe05750565b600181600481111561300257634e487b7160e01b600052602160045260246000fd5b14156130505760405162461bcd60e51b815260206004820152601860248201527f45434453413a20696e76616c6964207369676e617475726500000000000000006044820152606401610865565b600281600481111561307257634e487b7160e01b600052602160045260246000fd5b14156130c05760405162461bcd60e51b815260206004820152601f60248201527f45434453413a20696e76616c6964207369676e6174757265206c656e677468006044820152606401610865565b60038160048111156130e257634e487b7160e01b600052602160045260246000fd5b141561313b5760405162461bcd60e51b815260206004820152602260248201527f45434453413a20696e76616c6964207369676e6174757265202773272076616c604482015261756560f01b6064820152608401610865565b600481600481111561315d57634e487b7160e01b600052602160045260246000fd5b14156109595760405162461bcd60e51b815260206004820152602260248201527f45434453413a20696e76616c6964207369676e6174757265202776272076616c604482015261756560f01b6064820152608401610865565b6131bf81612381565b6040516001600160a01b038216907fbc7cd75a20ee27fd9adebab32041f755214dbc6bffa90cc0225b39da2e5c2d3b90600090a250565b60606001600160a01b0383163b6132755760405162461bcd60e51b815260206004820152602660248201527f416464726573733a2064656c65676174652063616c6c20746f206e6f6e2d636f60448201527f6e747261637400000000000000000000000000000000000000000000000000006064820152608401610865565b600080846001600160a01b0316846040516132909190613dd2565b600060405180830381855af49150503d80600081146132cb576040519150601f19603f3d011682016040523d82523d6000602084013e6132d0565b606091505b50915091506132f8828260405180606001604052806027815260200161438a602791396133a8565b95945050505050565b60008061330f8686866133e1565b9050600183600281111561333357634e487b7160e01b600052602160045260246000fd5b14801561335e57506000848061335957634e487b7160e01b600052601260045260246000fd5b868809115b156132f85761336e600182614113565b9695505050505050565b6000613384848461349f565b9350610bd4848361349f565b600061339c84846134b5565b9350610bd484836134b5565b606083156133b75750816107c5565b8251156133c75782518084602001fd5b8160405162461bcd60e51b81526004016108659190614082565b60008080600019858709858702925082811083820303915050806000141561342a5783828161342057634e487b7160e01b600052601260045260246000fd5b04925050506107c5565b80841161343657600080fd5b60008486880960026001871981018816978890046003810283188082028403028082028403028082028403028082028403028082028403029081029092039091026000889003889004909101858311909403939093029303949094049190911702949350505050565b60008183106134ae57816107c5565b5090919050565b6000818310156134ae57816107c5565b8280546134d1906142e5565b90600052602060002090601f0160209004810192826134f35760008555613539565b82601f1061350c57805160ff1916838001178555613539565b82800160010185558215613539579182015b8281111561353957825182559160200191906001019061351e565b50613545929150613549565b5090565b5b80821115613545576000815560010161354a565b600067ffffffffffffffff83111561357857613578614361565b61358b601f8401601f19166020016140be565b905082815283838301111561359f57600080fd5b828260208301376000602084830101529392505050565b80356001600160a01b03811681146135cd57600080fd5b919050565b60008083601f8401126135e3578182fd5b50813567ffffffffffffffff8111156135fa578182fd5b6020830191508360208260051b850101111561361557600080fd5b9250929050565b600082601f83011261362c578081fd5b8135602061364161363c836140ef565b6140be565b80838252828201915082860187848660051b8901011115613660578586fd5b855b8581101561368557613673826135b6565b84529284019290840190600101613662565b5090979650505050505050565b600082601f8301126136a2578081fd5b813560206136b261363c836140ef565b80838252828201915082860187848660051b89010111156136d1578586fd5b855b85811015613685578135845292840192908401906001016136d3565b8035600481106135cd57600080fd5b8035600281106135cd57600080fd5b600082601f83011261371d578081fd5b6107c58383356020850161355e565b803560ff811681146135cd57600080fd5b60006020828403121561374e578081fd5b6107c5826135b6565b60008060408385031215613769578081fd5b613772836135b6565b9150613780602084016135b6565b90509250929050565b60008060006060848603121561379d578081fd5b6137a6846135b6565b92506137b4602085016135b6565b9150604084013590509250925092565b600080600080600080600060e0888a0312156137de578485fd5b6137e7886135b6565b96506137f5602089016135b6565b955060408801359450606088013593506138116080890161372c565b925060a0880135915060c0880135905092959891949750929550565b6000806040838503121561383f578182fd5b613848836135b6565b9150602083013567ffffffffffffffff811115613863578182fd5b8301601f81018513613873578182fd5b6138828582356020840161355e565b9150509250929050565b6000806040838503121561389e578182fd5b6138a7836135b6565b946020939093013593505050565b600080604083850312156138c7578182fd5b6138d0836135b6565b915060208301356138e081614377565b809150509250929050565b60008060008060408587031215613900578182fd5b843567ffffffffffffffff80821115613917578384fd5b613923888389016135d2565b9096509450602087013591508082111561393b578384fd5b50613948878288016135d2565b95989497509550505050565b600080600060408486031215613968578081fd5b833567ffffffffffffffff81111561397e578182fd5b61398a868287016135d2565b909450925061399d9050602085016136ef565b90509250925092565b60008060008060008060008060006101008a8c0312156139c4578283fd5b893567ffffffffffffffff8111156139da578384fd5b6139e68c828d016135d2565b909a5098506139f9905060208b016136ef565b9650613a0760408b016135b6565b955060608a0135945060808a01359350613a2360a08b0161372c565b925060c08a0135915060e08a013590509295985092959850929598565b600080600060408486031215613a54578081fd5b833567ffffffffffffffff811115613a6a578182fd5b613a76868287016135d2565b909450925061399d9050602085016136fe565b60008060008060008060008060006101008a8c031215613aa7578283fd5b893567ffffffffffffffff811115613abd578384fd5b613ac98c828d016135d2565b909a5098506139f9905060208b016136fe565b60008060008060008060008060006101008a8c031215613afa578283fd5b893567ffffffffffffffff80821115613b11578485fd5b613b1d8d838e016135d2565b909b509950899150613b3160208d016136fe565b985060408c0135915080821115613b46578485fd5b613b528d838e0161361c565b975060608c0135915080821115613b67578485fd5b50613b748c828d01613692565b95505060808a01359350613a2360a08b0161372c565b60006020808385031215613b9c578182fd5b825167ffffffffffffffff811115613bb2578283fd5b8301601f81018513613bc2578283fd5b8051613bd061363c826140ef565b80828252848201915084840188868560051b8701011115613bef578687fd5b8694505b83851015613c11578051835260019490940193918501918501613bf3565b50979650505050505050565b600060208284031215613c2e578081fd5b5051919050565b60008060408385031215613c47578182fd5b823567ffffffffffffffff80821115613c5e578384fd5b613c6a8683870161370d565b93506020850135915080821115613c7f578283fd5b506138828582860161370d565b60008060408385031215613c9e578182fd5b505080516020909101519092909150565b600060208284031215613cc0578081fd5b81356107c581614377565b600080600080600060a08688031215613ce2578283fd5b8551613ced81614377565b602087015160408801516060890151608090990151929a91995097965090945092505050565b6000815180845260208085019450808401835b83811015613d4257815187529582019590820190600101613d26565b509495945050505050565b6000815180845260208085019450808401835b83811015613d4257815163ffffffff1687529582019590820190600101613d60565b60008151808452613d9a8160208601602086016142b9565b601f01601f19169290920160200192915050565b60048110613dbe57613dbe61434b565b9052565b60028110613dbe57613dbe61434b565b60008251613de48184602087016142b9565b9190910192915050565b60006001600160a01b038088168352808716602084015280861660408401525060a06060830152613e2260a0830185613d4d565b8281036080840152613e348185613d13565b98975050505050505050565b60006101008083016001600160a01b03808d1685526020818d16818701528360408701528293508b5180845261012087019450818d019350855b81811015613e98578451841686529482019493820193600101613e7a565b50505050508281036060840152613eaf8189613d13565b915050856080830152613ec760a083018660ff169052565b60c082019390935260e001529695505050505050565b600060a0820160a0835280885180835260c08501915060c08160051b86010192506020808b01855b83811015613f6d5760bf19888703018552815160606001600160a01b0382511688528482015181868a0152613f3c828a0182613d4d565b9150506040808301519250888203818a015250613f598183613d13565b975050509382019390820190600101613f05565b505085019890985250604083019590955250606081019290925260809091015292915050565b606081526000613fa66060830186613d82565b8281036020840152613fb88186613d4d565b9050828103604084015261336e8185613d13565b6001600160a01b0387811682528681166020830152851660408201526060810184905260c081016140006080830185613dae565b61400d60a0830184613dc2565b979650505050505050565b6001600160a01b038681168252851660208201526040810184905260a081016140446060830185613dae565b61336e6080830184613dc2565b60608101600585106140655761406561434b565b93815260208101929092526001600160a01b031660409091015290565b6020815260006107c56020830184613d82565b6040516060810167ffffffffffffffff811182821017156140b8576140b8614361565b60405290565b604051601f8201601f1916810167ffffffffffffffff811182821017156140e7576140e7614361565b604052919050565b600067ffffffffffffffff82111561410957614109614361565b5060051b60200190565b6000821982111561412657614126614335565b500190565b60008261414657634e487b7160e01b81526012600452602481fd5b500490565b600081600019048311821515161561416557614165614335565b500290565b60008282101561417c5761417c614335565b500390565b600061418f61363c846140ef565b838152602080820191908460053688821b830111156141ac578586fd5b855b888110156142ac57823567ffffffffffffffff808211156141cd578889fd5b818a019150606082360312156141e1578889fd5b6141e9614095565b6141f2836135b6565b81528683013582811115614204578a8bfd5b830136601f820112614214578a8bfd5b803561422261363c826140ef565b81815289810190838b0136848b1b86018d01111561423e578e8ffd5b8e94505b8385101561426957803561425581614377565b835260019490940193918b01918b01614242565b50848b01525060409150508381013583811115614284578b8cfd5b61429036828701613692565b91830191909152508852505094830194918301916001016141ae565b5092979650505050505050565b60005b838110156142d45781810151838201526020016142bc565b838111156117195750506000910152565b600181811c908216806142f957607f821691505b602082108114156122ea57634e487b7160e01b600052602260045260246000fd5b600060001982141561432e5761432e614335565b5060010190565b634e487b7160e01b600052601160045260246000fd5b634e487b7160e01b600052602160045260246000fd5b634e487b7160e01b600052604160045260246000fd5b63ffffffff8116811461095957600080fdfe416464726573733a206c6f772d6c6576656c2064656c65676174652063616c6c206661696c6564a26469706673582212201b1bd7959f7da3446fe2062d3e2cbb1334b9be44811b35312dc04b9b1b60848964736f6c63430008040033",
  "linkReferences": {},
  "deployedLinkReferences": {}
}