{
  "_format": "hh-sol-artifact-1",
  "contractName": "Root",
  "sourceName": "contracts/tokens/Root.sol",
  "abi": [
    {
      "inputs": [],
      "stateMutability": "nonpayable",
      "type": "constructor"
    },
    {
      "anonymous": false,
      "inputs": [
        {
          "indexed": true,
          "internalType": "address",
          "name": "token",
          "type": "address"
        }
      ],
      "name": "AddWhitelistToken",
      "type": "event"
    },
    {
      "anonymous": false,
      "inputs": [
        {
          "indexed": false,
          "internalType": "address",
          "name": "previousAdmin",
          "type": "address"
        },
        {
          "indexed": false,
          "internalType": "address",
          "name": "newAdmin",
          "type": "address"
        }
      ],
      "name": "AdminChanged",
      "type": "event"
    },
    {
      "anonymous": false,
      "inputs": [
        {
          "indexed": true,
          "internalType": "address",
          "name": "owner",
          "type": "address"
        },
        {
          "indexed": true,
          "internalType": "address",
          "name": "spender",
          "type": "address"
        },
        {
          "indexed": false,
          "internalType": "uint256",
          "name": "value",
          "type": "uint256"
        }
      ],
      "name": "Approval",
      "type": "event"
    },
    {
      "anonymous": false,
      "inputs": [
        {
          "indexed": true,
          "internalType": "address",
          "name": "beacon",
          "type": "address"
        }
      ],
      "name": "BeaconUpgraded",
      "type": "event"
    },
    {
      "anonymous": false,
      "inputs": [
        {
          "indexed": false,
          "internalType": "uint8",
          "name": "version",
          "type": "uint8"
        }
      ],
      "name": "Initialized",
      "type": "event"
    },
    {
      "anonymous": false,
      "inputs": [
        {
          "indexed": true,
          "internalType": "address",
          "name": "account",
          "type": "address"
        },
        {
          "components": [
            {
              "internalType": "address",
              "name": "token",
              "type": "address"
            },
            {
              "internalType": "uint32[]",
              "name": "seasons",
              "type": "uint32[]"
            },
            {
              "internalType": "uint256[]",
              "name": "amounts",
              "type": "uint256[]"
            }
          ],
          "indexed": false,
          "internalType": "struct DepositTransfer[]",
          "name": "deposits",
          "type": "tuple[]"
        },
        {
          "indexed": false,
          "internalType": "uint256",
          "name": "bdv",
          "type": "uint256"
        },
        {
          "indexed": false,
          "internalType": "uint256",
          "name": "stalk",
          "type": "uint256"
        },
        {
          "indexed": false,
          "internalType": "uint256",
          "name": "seeds",
          "type": "uint256"
        },
        {
          "indexed": false,
          "internalType": "uint256",
          "name": "shares",
          "type": "uint256"
        }
      ],
      "name": "Mint",
      "type": "event"
    },
    {
      "anonymous": false,
      "inputs": [
        {
          "indexed": true,
          "internalType": "address",
          "name": "previousOwner",
          "type": "address"
        },
        {
          "indexed": true,
          "internalType": "address",
          "name": "newOwner",
          "type": "address"
        }
      ],
      "name": "OwnershipTransferred",
      "type": "event"
    },
    {
      "anonymous": false,
      "inputs": [
        {
          "indexed": true,
          "internalType": "address",
          "name": "account",
          "type": "address"
        },
        {
          "components": [
            {
              "internalType": "address",
              "name": "token",
              "type": "address"
            },
            {
              "internalType": "uint32[]",
              "name": "seasons",
              "type": "uint32[]"
            },
            {
              "internalType": "uint256[]",
              "name": "amounts",
              "type": "uint256[]"
            }
          ],
          "indexed": false,
          "internalType": "struct DepositTransfer[]",
          "name": "deposits",
          "type": "tuple[]"
        },
        {
          "indexed": false,
          "internalType": "uint256",
          "name": "bdv",
          "type": "uint256"
        },
        {
          "indexed": false,
          "internalType": "uint256",
          "name": "stalk",
          "type": "uint256"
        },
        {
          "indexed": false,
          "internalType": "uint256",
          "name": "seeds",
          "type": "uint256"
        },
        {
          "indexed": false,
          "internalType": "uint256",
          "name": "shares",
          "type": "uint256"
        }
      ],
      "name": "Redeem",
      "type": "event"
    },
    {
      "anonymous": false,
      "inputs": [
        {
          "indexed": true,
          "internalType": "address",
          "name": "token",
          "type": "address"
        }
      ],
      "name": "RemoveWhitelistToken",
      "type": "event"
    },
    {
      "anonymous": false,
      "inputs": [
        {
          "indexed": true,
          "internalType": "address",
          "name": "from",
          "type": "address"
        },
        {
          "indexed": true,
          "internalType": "address",
          "name": "to",
          "type": "address"
        },
        {
          "indexed": false,
          "internalType": "uint256",
          "name": "value",
          "type": "uint256"
        }
      ],
      "name": "Transfer",
      "type": "event"
    },
    {
      "anonymous": false,
      "inputs": [
        {
          "indexed": true,
          "internalType": "address",
          "name": "implementation",
          "type": "address"
        }
      ],
      "name": "Upgraded",
      "type": "event"
    },
    {
      "inputs": [],
      "name": "BEANSTALK_ADDRESS",
      "outputs": [
        {
          "internalType": "address",
          "name": "",
          "type": "address"
        }
      ],
      "stateMutability": "view",
      "type": "function"
    },
    {
      "inputs": [],
      "name": "DOMAIN_SEPARATOR",
      "outputs": [
        {
          "internalType": "bytes32",
          "name": "",
          "type": "bytes32"
        }
      ],
      "stateMutability": "view",
      "type": "function"
    },
    {
      "inputs": [
        {
          "internalType": "address",
          "name": "token",
          "type": "address"
        }
      ],
      "name": "addWhitelistToken",
      "outputs": [],
      "stateMutability": "nonpayable",
      "type": "function"
    },
    {
      "inputs": [
        {
          "internalType": "address",
          "name": "owner",
          "type": "address"
        },
        {
          "internalType": "address",
          "name": "spender",
          "type": "address"
        }
      ],
      "name": "allowance",
      "outputs": [
        {
          "internalType": "uint256",
          "name": "",
          "type": "uint256"
        }
      ],
      "stateMutability": "view",
      "type": "function"
    },
    {
      "inputs": [
        {
          "internalType": "address",
          "name": "spender",
          "type": "address"
        },
        {
          "internalType": "uint256",
          "name": "amount",
          "type": "uint256"
        }
      ],
      "name": "approve",
      "outputs": [
        {
          "internalType": "bool",
          "name": "",
          "type": "bool"
        }
      ],
      "stateMutability": "nonpayable",
      "type": "function"
    },
    {
      "inputs": [
        {
          "internalType": "address",
          "name": "account",
          "type": "address"
        }
      ],
      "name": "balanceOf",
      "outputs": [
        {
          "internalType": "uint256",
          "name": "",
          "type": "uint256"
        }
      ],
      "stateMutability": "view",
      "type": "function"
    },
    {
      "inputs": [],
      "name": "bdvPerRoot",
      "outputs": [
        {
          "internalType": "uint256",
          "name": "",
          "type": "uint256"
        }
      ],
      "stateMutability": "view",
      "type": "function"
    },
    {
      "inputs": [],
      "name": "claimOwnership",
      "outputs": [],
      "stateMutability": "nonpayable",
      "type": "function"
    },
    {
      "inputs": [],
      "name": "decimals",
      "outputs": [
        {
          "internalType": "uint8",
          "name": "",
          "type": "uint8"
        }
      ],
      "stateMutability": "view",
      "type": "function"
    },
    {
      "inputs": [
        {
          "internalType": "address",
          "name": "spender",
          "type": "address"
        },
        {
          "internalType": "uint256",
          "name": "subtractedValue",
          "type": "uint256"
        }
      ],
      "name": "decreaseAllowance",
      "outputs": [
        {
          "internalType": "bool",
          "name": "",
          "type": "bool"
        }
      ],
      "stateMutability": "nonpayable",
      "type": "function"
    },
    {
      "inputs": [],
      "name": "earn",
      "outputs": [],
      "stateMutability": "nonpayable",
      "type": "function"
    },
    {
      "inputs": [
        {
          "internalType": "address",
          "name": "spender",
          "type": "address"
        },
        {
          "internalType": "uint256",
          "name": "addedValue",
          "type": "uint256"
        }
      ],
      "name": "increaseAllowance",
      "outputs": [
        {
          "internalType": "bool",
          "name": "",
          "type": "bool"
        }
      ],
      "stateMutability": "nonpayable",
      "type": "function"
    },
    {
      "inputs": [
        {
          "internalType": "string",
          "name": "name",
          "type": "string"
        },
        {
          "internalType": "string",
          "name": "symbol",
          "type": "string"
        }
      ],
      "name": "initialize",
      "outputs": [],
      "stateMutability": "nonpayable",
      "type": "function"
    },
    {
      "inputs": [
        {
          "components": [
            {
              "internalType": "address",
              "name": "token",
              "type": "address"
            },
            {
              "internalType": "uint32[]",
              "name": "seasons",
              "type": "uint32[]"
            },
            {
              "internalType": "uint256[]",
              "name": "amounts",
              "type": "uint256[]"
            }
          ],
          "internalType": "struct DepositTransfer[]",
          "name": "depositTransfers",
          "type": "tuple[]"
        },
        {
          "internalType": "enum To",
          "name": "mode",
          "type": "uint8"
        },
        {
          "internalType": "uint256",
          "name": "minRootsOut",
          "type": "uint256"
        }
      ],
      "name": "mint",
      "outputs": [
        {
          "internalType": "uint256",
          "name": "",
          "type": "uint256"
        }
      ],
      "stateMutability": "nonpayable",
      "type": "function"
    },
    {
      "inputs": [
        {
          "components": [
            {
              "internalType": "address",
              "name": "token",
              "type": "address"
            },
            {
              "internalType": "uint32[]",
              "name": "seasons",
              "type": "uint32[]"
            },
            {
              "internalType": "uint256[]",
              "name": "amounts",
              "type": "uint256[]"
            }
          ],
          "internalType": "struct DepositTransfer[]",
          "name": "depositTransfers",
          "type": "tuple[]"
        },
        {
          "internalType": "enum To",
          "name": "mode",
          "type": "uint8"
        },
        {
          "internalType": "uint256",
          "name": "minRootsOut",
          "type": "uint256"
        },
        {
          "internalType": "address",
          "name": "token",
          "type": "address"
        },
        {
          "internalType": "uint256",
          "name": "value",
          "type": "uint256"
        },
        {
          "internalType": "uint256",
          "name": "deadline",
          "type": "uint256"
        },
        {
          "internalType": "uint8",
          "name": "v",
          "type": "uint8"
        },
        {
          "internalType": "bytes32",
          "name": "r",
          "type": "bytes32"
        },
        {
          "internalType": "bytes32",
          "name": "s",
          "type": "bytes32"
        }
      ],
      "name": "mintWithTokenPermit",
      "outputs": [
        {
          "internalType": "uint256",
          "name": "",
          "type": "uint256"
        }
      ],
      "stateMutability": "nonpayable",
      "type": "function"
    },
    {
      "inputs": [
        {
          "components": [
            {
              "internalType": "address",
              "name": "token",
              "type": "address"
            },
            {
              "internalType": "uint32[]",
              "name": "seasons",
              "type": "uint32[]"
            },
            {
              "internalType": "uint256[]",
              "name": "amounts",
              "type": "uint256[]"
            }
          ],
          "internalType": "struct DepositTransfer[]",
          "name": "depositTransfers",
          "type": "tuple[]"
        },
        {
          "internalType": "enum To",
          "name": "mode",
          "type": "uint8"
        },
        {
          "internalType": "uint256",
          "name": "minRootsOut",
          "type": "uint256"
        },
        {
          "internalType": "address[]",
          "name": "tokens",
          "type": "address[]"
        },
        {
          "internalType": "uint256[]",
          "name": "values",
          "type": "uint256[]"
        },
        {
          "internalType": "uint256",
          "name": "deadline",
          "type": "uint256"
        },
        {
          "internalType": "uint8",
          "name": "v",
          "type": "uint8"
        },
        {
          "internalType": "bytes32",
          "name": "r",
          "type": "bytes32"
        },
        {
          "internalType": "bytes32",
          "name": "s",
          "type": "bytes32"
        }
      ],
      "name": "mintWithTokensPermit",
      "outputs": [
        {
          "internalType": "uint256",
          "name": "",
          "type": "uint256"
        }
      ],
      "stateMutability": "nonpayable",
      "type": "function"
    },
    {
      "inputs": [],
      "name": "name",
      "outputs": [
        {
          "internalType": "string",
          "name": "",
          "type": "string"
        }
      ],
      "stateMutability": "view",
      "type": "function"
    },
    {
      "inputs": [
        {
          "internalType": "address",
          "name": "owner",
          "type": "address"
        }
      ],
      "name": "nonces",
      "outputs": [
        {
          "internalType": "uint256",
          "name": "",
          "type": "uint256"
        }
      ],
      "stateMutability": "view",
      "type": "function"
    },
    {
      "inputs": [],
      "name": "owner",
      "outputs": [
        {
          "internalType": "address",
          "name": "",
          "type": "address"
        }
      ],
      "stateMutability": "view",
      "type": "function"
    },
    {
      "inputs": [],
      "name": "ownerCandidate",
      "outputs": [
        {
          "internalType": "address",
          "name": "",
          "type": "address"
        }
      ],
      "stateMutability": "view",
      "type": "function"
    },
    {
      "inputs": [
        {
          "internalType": "address",
          "name": "owner",
          "type": "address"
        },
        {
          "internalType": "address",
          "name": "spender",
          "type": "address"
        },
        {
          "internalType": "uint256",
          "name": "value",
          "type": "uint256"
        },
        {
          "internalType": "uint256",
          "name": "deadline",
          "type": "uint256"
        },
        {
          "internalType": "uint8",
          "name": "v",
          "type": "uint8"
        },
        {
          "internalType": "bytes32",
          "name": "r",
          "type": "bytes32"
        },
        {
          "internalType": "bytes32",
          "name": "s",
          "type": "bytes32"
        }
      ],
      "name": "permit",
      "outputs": [],
      "stateMutability": "nonpayable",
      "type": "function"
    },
    {
      "inputs": [],
      "name": "proxiableUUID",
      "outputs": [
        {
          "internalType": "bytes32",
          "name": "",
          "type": "bytes32"
        }
      ],
      "stateMutability": "view",
      "type": "function"
    },
    {
      "inputs": [
        {
          "components": [
            {
              "internalType": "address",
              "name": "token",
              "type": "address"
            },
            {
              "internalType": "uint32[]",
              "name": "seasons",
              "type": "uint32[]"
            },
            {
              "internalType": "uint256[]",
              "name": "amounts",
              "type": "uint256[]"
            }
          ],
          "internalType": "struct DepositTransfer[]",
          "name": "depositTransfers",
          "type": "tuple[]"
        },
        {
          "internalType": "enum From",
          "name": "mode",
          "type": "uint8"
        },
        {
          "internalType": "uint256",
          "name": "maxRootsIn",
          "type": "uint256"
        }
      ],
      "name": "redeem",
      "outputs": [
        {
          "internalType": "uint256",
          "name": "",
          "type": "uint256"
        }
      ],
      "stateMutability": "nonpayable",
      "type": "function"
    },
    {
      "inputs": [
        {
          "components": [
            {
              "internalType": "address",
              "name": "token",
              "type": "address"
            },
            {
              "internalType": "uint32[]",
              "name": "seasons",
              "type": "uint32[]"
            },
            {
              "internalType": "uint256[]",
              "name": "amounts",
              "type": "uint256[]"
            }
          ],
          "internalType": "struct DepositTransfer[]",
          "name": "depositTransfers",
          "type": "tuple[]"
        },
        {
          "internalType": "enum From",
          "name": "mode",
          "type": "uint8"
        },
        {
          "internalType": "uint256",
          "name": "maxRootsIn",
          "type": "uint256"
        },
        {
          "internalType": "address",
          "name": "token",
          "type": "address"
        },
        {
          "internalType": "uint256",
          "name": "value",
          "type": "uint256"
        },
        {
          "internalType": "uint256",
          "name": "deadline",
          "type": "uint256"
        },
        {
          "internalType": "uint8",
          "name": "v",
          "type": "uint8"
        },
        {
          "internalType": "bytes32",
          "name": "r",
          "type": "bytes32"
        },
        {
          "internalType": "bytes32",
          "name": "s",
          "type": "bytes32"
        }
      ],
      "name": "redeemWithFarmBalancePermit",
      "outputs": [
        {
          "internalType": "uint256",
          "name": "",
          "type": "uint256"
        }
      ],
      "stateMutability": "nonpayable",
      "type": "function"
    },
    {
      "inputs": [
        {
          "internalType": "address",
          "name": "token",
          "type": "address"
        }
      ],
      "name": "removeWhitelistToken",
      "outputs": [],
      "stateMutability": "nonpayable",
      "type": "function"
    },
    {
      "inputs": [],
      "name": "renounceOwnership",
      "outputs": [],
      "stateMutability": "nonpayable",
      "type": "function"
    },
    {
      "inputs": [
        {
          "internalType": "address",
          "name": "_delegateContract",
          "type": "address"
        },
        {
          "internalType": "address",
          "name": "_delegate",
          "type": "address"
        },
        {
          "internalType": "bytes32",
          "name": "_snapshotId",
          "type": "bytes32"
        }
      ],
      "name": "setDelegate",
      "outputs": [],
      "stateMutability": "nonpayable",
      "type": "function"
    },
    {
      "inputs": [],
      "name": "symbol",
      "outputs": [
        {
          "internalType": "string",
          "name": "",
          "type": "string"
        }
      ],
      "stateMutability": "view",
      "type": "function"
    },
    {
      "inputs": [],
      "name": "totalSupply",
      "outputs": [
        {
          "internalType": "uint256",
          "name": "",
          "type": "uint256"
        }
      ],
      "stateMutability": "view",
      "type": "function"
    },
    {
      "inputs": [
        {
          "internalType": "address",
          "name": "to",
          "type": "address"
        },
        {
          "internalType": "uint256",
          "name": "amount",
          "type": "uint256"
        }
      ],
      "name": "transfer",
      "outputs": [
        {
          "internalType": "bool",
          "name": "",
          "type": "bool"
        }
      ],
      "stateMutability": "nonpayable",
      "type": "function"
    },
    {
      "inputs": [
        {
          "internalType": "address",
          "name": "from",
          "type": "address"
        },
        {
          "internalType": "address",
          "name": "to",
          "type": "address"
        },
        {
          "internalType": "uint256",
          "name": "amount",
          "type": "uint256"
        }
      ],
      "name": "transferFrom",
      "outputs": [
        {
          "internalType": "bool",
          "name": "",
          "type": "bool"
        }
      ],
      "stateMutability": "nonpayable",
      "type": "function"
    },
    {
      "inputs": [
        {
          "internalType": "address",
          "name": "newOwner",
          "type": "address"
        }
      ],
      "name": "transferOwnership",
      "outputs": [],
      "stateMutability": "nonpayable",
      "type": "function"
    },
    {
      "inputs": [],
      "name": "underlyingBdv",
      "outputs": [
        {
          "internalType": "uint256",
          "name": "",
          "type": "uint256"
        }
      ],
      "stateMutability": "view",
      "type": "function"
    },
    {
      "inputs": [
        {
          "internalType": "address",
          "name": "token",
          "type": "address"
        },
        {
          "internalType": "uint32",
          "name": "season",
          "type": "uint32"
        }
      ],
      "name": "updateBdv",
      "outputs": [],
      "stateMutability": "nonpayable",
      "type": "function"
    },
    {
      "inputs": [
        {
          "internalType": "address[]",
          "name": "tokens",
          "type": "address[]"
        },
        {
          "internalType": "uint32[]",
          "name": "seasons",
          "type": "uint32[]"
        }
      ],
      "name": "updateBdvs",
      "outputs": [],
      "stateMutability": "nonpayable",
      "type": "function"
    },
    {
      "inputs": [
        {
          "internalType": "address",
          "name": "newImplementation",
          "type": "address"
        }
      ],
      "name": "upgradeTo",
      "outputs": [],
      "stateMutability": "nonpayable",
      "type": "function"
    },
    {
      "inputs": [
        {
          "internalType": "address",
          "name": "newImplementation",
          "type": "address"
        },
        {
          "internalType": "bytes",
          "name": "data",
          "type": "bytes"
        }
      ],
      "name": "upgradeToAndCall",
      "outputs": [],
      "stateMutability": "payable",
      "type": "function"
    },
    {
      "inputs": [
        {
          "internalType": "address",
          "name": "",
          "type": "address"
        }
      ],
      "name": "whitelisted",
      "outputs": [
        {
          "internalType": "bool",
          "name": "",
          "type": "bool"
        }
      ],
      "stateMutability": "view",
      "type": "function"
    }
  ],
  "bytecode": "0x60a0604052306080523480156200001557600080fd5b506200002062000026565b620000e8565b600054610100900460ff1615620000935760405162461bcd60e51b815260206004820152602760248201527f496e697469616c697a61626c653a20636f6e747261637420697320696e697469604482015266616c697a696e6760c81b606482015260840160405180910390fd5b60005460ff9081161015620000e6576000805460ff191660ff9081179091556040519081527f7f26b83ff96e1f2b6a682f133852f6798a09c465da95921460cefb38474024989060200160405180910390a15b565b60805161478c62000120600039600081816109ca01528181610a5401528181610f7301528181610ff801526110e2015261478c6000f3fe6080604052600436106102855760003560e01c8063715018a611610153578063aa196827116100cb578063d936547e1161007f578063e9ee910711610064578063e9ee91071461070c578063f2fde38b1461072c578063ffe2dd971461074c57600080fd5b8063d936547e14610695578063dd62ed3e146106c657600080fd5b8063c9240f02116100b0578063c9240f0214610640578063d389800f14610660578063d505accf1461067557600080fd5b8063aa19682714610603578063bb9e09c81461062b57600080fd5b806395d89b41116101225780639b3ac95c116101075780639b3ac95c146105a3578063a457c2d7146105c3578063a9059cbb146105e357600080fd5b806395d89b4114610577578063964772311461058c57600080fd5b8063715018a6146105035780637ecebe00146105185780638da5cb5b146105385780639168083c1461055757600080fd5b80633644e515116102015780634e71e0c8116101b557806352d1902d1161019a57806352d1902d1461047f5780635f504a821461049457806370a08231146104cd57600080fd5b80634e71e0c8146104575780634f1ef2861461046c57600080fd5b806339509351116101e657806339509351146103f75780633b788da9146104175780634cd88b761461043757600080fd5b80633644e515146103c25780633659cfe6146103d757600080fd5b80631a54ba281161025857806323b872dd1161023d57806323b872dd146103645780632901621214610384578063313ce567146103a657600080fd5b80631a54ba28146103245780632235eff91461034457600080fd5b8063048f08691461028a57806306fdde03146102bd578063095ea7b3146102df57806318160ddd1461030f575b600080fd5b34801561029657600080fd5b506102aa6102a53660046138a4565b61076c565b6040519081526020015b60405180910390f35b3480156102c957600080fd5b506102d2610783565b6040516102b49190613950565b3480156102eb57600080fd5b506102ff6102fa36600461397a565b610815565b60405190151581526020016102b4565b34801561031b57600080fd5b506099546102aa565b34801561033057600080fd5b506102aa61033f3660046139b3565b61082f565b34801561035057600080fd5b506102aa61035f366004613a10565b61083d565b34801561037057600080fd5b506102ff61037f366004613ab7565b610913565b34801561039057600080fd5b506103a461039f366004613af3565b610939565b005b3480156103b257600080fd5b50604051601281526020016102b4565b3480156103ce57600080fd5b506102aa6109b1565b3480156103e357600080fd5b506103a46103f2366004613b5f565b6109c0565b34801561040357600080fd5b506102ff61041236600461397a565b610b40565b34801561042357600080fd5b506103a4610432366004613ab7565b610b7f565b34801561044357600080fd5b506103a4610452366004613bbc565b610cdd565b34801561046357600080fd5b506103a4610eb2565b6103a461047a366004613c63565b610f69565b34801561048b57600080fd5b506102aa6110d5565b3480156104a057600080fd5b50610164546104b5906001600160a01b031681565b6040516001600160a01b0390911681526020016102b4565b3480156104d957600080fd5b506102aa6104e8366004613b5f565b6001600160a01b031660009081526097602052604090205490565b34801561050f57600080fd5b506103a461119a565b34801561052457600080fd5b506102aa610533366004613b5f565b611210565b34801561054457600080fd5b50610130546001600160a01b03166104b5565b34801561056357600080fd5b506103a4610572366004613b5f565b61122e565b34801561058357600080fd5b506102d26112d9565b34801561059857600080fd5b506102aa6101635481565b3480156105af57600080fd5b506102aa6105be366004613d09565b6112e8565b3480156105cf57600080fd5b506102ff6105de36600461397a565b6113af565b3480156105ef57600080fd5b506102ff6105fe36600461397a565b611464565b34801561060f57600080fd5b506104b573c1e088fc1323b20bcbee9bd1b9fc9546db5624c581565b34801561063757600080fd5b506102aa611472565b34801561064c57600080fd5b506103a461065b366004613d71565b61149e565b34801561066c57600080fd5b506103a46114a8565b34801561068157600080fd5b506103a4610690366004613da8565b61153f565b3480156106a157600080fd5b506102ff6106b0366004613b5f565b6101626020526000908152604090205460ff1681565b3480156106d257600080fd5b506102aa6106e1366004613e12565b6001600160a01b03918216600090815260986020908152604080832093909416825291909152205490565b34801561071857600080fd5b506103a4610727366004613b5f565b6116a3565b34801561073857600080fd5b506103a4610747366004613b5f565b61174b565b34801561075857600080fd5b506102aa610767366004613e45565b6117ff565b600061077a858585856118b3565b95945050505050565b6060609a805461079290613f35565b80601f01602080910402602001604051908101604052809291908181526020018280546107be90613f35565b801561080b5780601f106107e05761010080835404028352916020019161080b565b820191906000526020600020905b8154815290600101906020018083116107ee57829003601f168201915b5050505050905090565b600033610823818585611a53565b60019150505b92915050565b600061077a85858585611bab565b6040517f7c516e940000000000000000000000000000000000000000000000000000000081523360048201523060248201526001600160a01b0387166044820152606481018690526084810185905260ff841660a482015260c4810183905260e4810182905260009073c1e088fc1323b20bcbee9bd1b9fc9546db5624c590637c516e949061010401600060405180830381600087803b1580156108e057600080fd5b505af11580156108f4573d6000803e3d6000fd5b505050506109048b8b8b8b6118b3565b9b9a5050505050505050505050565b600033610921858285611d8b565b61092c858585611e1d565b60019150505b9392505050565b60005b838110156109aa5761099a85858381811061095957610959613f69565b905060200201602081019061096e9190613b5f565b84848481811061098057610980613f69565b90506020020160208101906109959190613f7f565b612034565b6109a381613fb2565b905061093c565b5050505050565b60006109bb6122ce565b905090565b6001600160a01b037f0000000000000000000000000000000000000000000000000000000000000000163003610a525760405162461bcd60e51b815260206004820152602c60248201527f46756e6374696f6e206d7573742062652063616c6c6564207468726f7567682060448201526b19195b1959d85d1958d85b1b60a21b60648201526084015b60405180910390fd5b7f00000000000000000000000000000000000000000000000000000000000000006001600160a01b0316610aad7f360894a13ba1a3210667c828492db98dca3e2076cc3735a920a3ca505d382bbc546001600160a01b031690565b6001600160a01b031614610b185760405162461bcd60e51b815260206004820152602c60248201527f46756e6374696f6e206d7573742062652063616c6c6564207468726f7567682060448201526b6163746976652070726f787960a01b6064820152608401610a49565b610b2181612349565b60408051600080825260208201909252610b3d91839190612351565b50565b3360008181526098602090815260408083206001600160a01b03871684529091528120549091906108239082908690610b7a908790613fcb565b611a53565b610b876124f1565b6001600160a01b038316610c035760405162461bcd60e51b815260206004820152602260248201527f4e6f6e2d7a65726f2064656c656761746520616464726573732072657175697260448201527f65640000000000000000000000000000000000000000000000000000000000006064820152608401610a49565b6001600160a01b038216610c8a576040517ff0bedbe2000000000000000000000000000000000000000000000000000000008152600481018290526001600160a01b0384169063f0bedbe2906024015b600060405180830381600087803b158015610c6d57600080fd5b505af1158015610c81573d6000803e3d6000fd5b50505050505050565b6040517fbd86e508000000000000000000000000000000000000000000000000000000008152600481018290526001600160a01b03838116602483015284169063bd86e50890604401610c53565b505050565b600054610100900460ff1615808015610cfd5750600054600160ff909116105b80610d175750303b158015610d17575060005460ff166001145b610d895760405162461bcd60e51b815260206004820152602e60248201527f496e697469616c697a61626c653a20636f6e747261637420697320616c72656160448201527f647920696e697469616c697a65640000000000000000000000000000000000006064820152608401610a49565b6000805460ff191660011790558015610dac576000805461ff0019166101001790555b610e1f85858080601f01602080910402602001604051908101604052809392919081815260200183838082843760009201919091525050604080516020601f8901819004810282018101909252878152925087915086908190840183828082843760009201919091525061254e92505050565b610e5e85858080601f0160208091040260200160405190810160405280939291908181526020018383808284376000920191909152506125c392505050565b610e6661266d565b80156109aa576000805461ff0019169055604051600181527f7f26b83ff96e1f2b6a682f133852f6798a09c465da95921460cefb38474024989060200160405180910390a15050505050565b610164546001600160a01b03163314610f335760405162461bcd60e51b815260206004820152603a60248201527f4f776e61626c653a2073656e646572206d757374206265206f776e657243616e60448201527f64696461746520746f20616363657074206f776e6572736869700000000000006064820152608401610a49565b61016454610f49906001600160a01b03166126e0565b610164805473ffffffffffffffffffffffffffffffffffffffff19169055565b6001600160a01b037f0000000000000000000000000000000000000000000000000000000000000000163003610ff65760405162461bcd60e51b815260206004820152602c60248201527f46756e6374696f6e206d7573742062652063616c6c6564207468726f7567682060448201526b19195b1959d85d1958d85b1b60a21b6064820152608401610a49565b7f00000000000000000000000000000000000000000000000000000000000000006001600160a01b03166110517f360894a13ba1a3210667c828492db98dca3e2076cc3735a920a3ca505d382bbc546001600160a01b031690565b6001600160a01b0316146110bc5760405162461bcd60e51b815260206004820152602c60248201527f46756e6374696f6e206d7573742062652063616c6c6564207468726f7567682060448201526b6163746976652070726f787960a01b6064820152608401610a49565b6110c582612349565b6110d182826001612351565b5050565b6000306001600160a01b037f000000000000000000000000000000000000000000000000000000000000000016146111755760405162461bcd60e51b815260206004820152603860248201527f555550535570677261646561626c653a206d757374206e6f742062652063616c60448201527f6c6564207468726f7567682064656c656761746563616c6c00000000000000006064820152608401610a49565b507f360894a13ba1a3210667c828492db98dca3e2076cc3735a920a3ca505d382bbc90565b6111a26124f1565b60405162461bcd60e51b815260206004820152602560248201527f4f776e61626c653a2043616e27742072656e6f756e63654f776e65727368697060448201527f20686572650000000000000000000000000000000000000000000000000000006064820152608401610a49565b6001600160a01b038116600090815260fd6020526040812054610829565b6112366124f1565b6001600160a01b03811661128c5760405162461bcd60e51b815260206004820152601f60248201527f4e6f6e2d7a65726f20746f6b656e2061646472657373207265717569726564006044820152606401610a49565b6001600160a01b03811660008181526101626020526040808220805460ff19166001179055517fa54e443f26cc5ad727d621c65ab316267d303b027773376113f00c53ed7b372b9190a250565b6060609b805461079290613f35565b6040517f120b57020000000000000000000000000000000000000000000000000000000081523360048201523060248201526001600160a01b0387166044820152606481018690526084810185905260ff841660a482015260c4810183905260e4810182905260009073c1e088fc1323b20bcbee9bd1b9fc9546db5624c59063120b57029061010401600060405180830381600087803b15801561138b57600080fd5b505af115801561139f573d6000803e3d6000fd5b505050506109048b8b8b8b611bab565b3360008181526098602090815260408083206001600160a01b03871684529091528120549091908381101561144c5760405162461bcd60e51b815260206004820152602560248201527f45524332303a2064656372656173656420616c6c6f77616e63652062656c6f7760448201527f207a65726f0000000000000000000000000000000000000000000000000000006064820152608401610a49565b6114598286868403611a53565b506001949350505050565b600033610823818585611e1d565b600061147d60995490565b670de0b6b3a7640000610163546114949190613fde565b6109bb919061400b565b6110d18282612034565b600073c1e088fc1323b20bcbee9bd1b9fc9546db5624c56001600160a01b031663779b3c5c6040518163ffffffff1660e01b81526004016020604051808303816000875af11580156114fe573d6000803e3d6000fd5b505050506040513d601f19601f82011682018060405250810190611522919061402d565b90508061016360008282546115379190613fcb565b909155505050565b8342111561158f5760405162461bcd60e51b815260206004820152601d60248201527f45524332305065726d69743a206578706972656420646561646c696e650000006044820152606401610a49565b60007f6e71edae12b1b97f4d1f60370fef10105fa2faae0126114a169c64845d6126c98888886115be8c612740565b6040805160208101969096526001600160a01b0394851690860152929091166060840152608083015260a082015260c0810186905260e001604051602081830303815290604052805190602001209050600061161982612768565b90506000611629828787876127d1565b9050896001600160a01b0316816001600160a01b03161461168c5760405162461bcd60e51b815260206004820152601e60248201527f45524332305065726d69743a20696e76616c6964207369676e617475726500006044820152606401610a49565b6116978a8a8a611a53565b50505050505050505050565b6116ab6124f1565b6001600160a01b0381166117015760405162461bcd60e51b815260206004820152601f60248201527f4e6f6e2d7a65726f20746f6b656e2061646472657373207265717569726564006044820152606401610a49565b6001600160a01b03811660008181526101626020526040808220805460ff19169055517ff9e330625cb712f3af7340fb3b6454be2ea9e7035659cfb1b477705786ca5d429190a250565b6117536124f1565b6001600160a01b0381166117cf5760405162461bcd60e51b815260206004820152602860248201527f4f776e61626c653a204e6f6e2d7a65726f206f776e657220616464726573732060448201527f72657175697265640000000000000000000000000000000000000000000000006064820152608401610a49565b610164805473ffffffffffffffffffffffffffffffffffffffff19166001600160a01b0392909216919091179055565b6040517fd5770dc700000000000000000000000000000000000000000000000000000000815260009073c1e088fc1323b20bcbee9bd1b9fc9546db5624c59063d5770dc79061186490339030908e908e908e908e908e908e908e908e90600401614091565b600060405180830381600087803b15801561187e57600080fd5b505af1158015611892573d6000803e3d6000fd5b505050506118a28d8d8d8d611bab565b9d9c50505050505050505050505050565b60008060008060006118c7898960006127f9565b9350935093509350858411156119455760405162461bcd60e51b815260206004820152602960248201527f52656465656d3a207368617265732069732067726561746572207468616e206d60448201527f6178526f6f7473496e00000000000000000000000000000000000000000000006064820152608401610a49565b33600088600381111561195a5761195a614134565b146119f057506040517f7006e387000000000000000000000000000000000000000000000000000000008152309073c1e088fc1323b20bcbee9bd1b9fc9546db5624c590637006e387906119bd908490339082908b908f9060009060040161416e565b600060405180830381600087803b1580156119d757600080fd5b505af11580156119eb573d6000803e3d6000fd5b505050505b6119fa8186612d27565b336001600160a01b03167f859a659762340cd07a1ca857ddc4f9485f55dd427e3fca351c9a52b253f5cc158b8b8787878b604051611a3d96959493929190614249565b60405180910390a2509298975050505050505050565b6001600160a01b038316611ace5760405162461bcd60e51b8152602060048201526024808201527f45524332303a20617070726f76652066726f6d20746865207a65726f2061646460448201527f72657373000000000000000000000000000000000000000000000000000000006064820152608401610a49565b6001600160a01b038216611b4a5760405162461bcd60e51b815260206004820152602260248201527f45524332303a20617070726f766520746f20746865207a65726f20616464726560448201527f73730000000000000000000000000000000000000000000000000000000000006064820152608401610a49565b6001600160a01b0383811660008181526098602090815260408083209487168084529482529182902085905590518481527f8c5be1e5ebec7d5bd14f71427d1e84f3dd0314c0f7b2291e5b200ac8c7c3b925910160405180910390a3505050565b6000806000806000611bbf898960016127f9565b935093509350935085841015611c3d5760405162461bcd60e51b815260206004820152602560248201527f4d696e743a20736861726573206973206c657373207468616e206d696e526f6f60448201527f74734f75740000000000000000000000000000000000000000000000000000006064820152608401610a49565b6001876001811115611c5157611c51614134565b03611d1057611c603085612eac565b611c7f3073c1e088fc1323b20bcbee9bd1b9fc9546db5624c586611a53565b6040517f6204aa4300000000000000000000000000000000000000000000000000000000815273c1e088fc1323b20bcbee9bd1b9fc9546db5624c590636204aa4390611cd99030903390899060009060019060040161432a565b600060405180830381600087803b158015611cf357600080fd5b505af1158015611d07573d6000803e3d6000fd5b50505050611d33565b6000876001811115611d2457611d24614134565b03611d3357611d333385612eac565b336001600160a01b03167f6ac93e168d031c08e2c22e09c4811299bce823b5980cad4b51805bf8405ec4bf8a8a8686868a604051611d7696959493929190614249565b60405180910390a25091979650505050505050565b6001600160a01b038381166000908152609860209081526040808320938616835292905220546000198114611e175781811015611e0a5760405162461bcd60e51b815260206004820152601d60248201527f45524332303a20696e73756666696369656e7420616c6c6f77616e63650000006044820152606401610a49565b611e178484848403611a53565b50505050565b6001600160a01b038316611e995760405162461bcd60e51b815260206004820152602560248201527f45524332303a207472616e736665722066726f6d20746865207a65726f20616460448201527f64726573730000000000000000000000000000000000000000000000000000006064820152608401610a49565b6001600160a01b038216611f155760405162461bcd60e51b815260206004820152602360248201527f45524332303a207472616e7366657220746f20746865207a65726f206164647260448201527f65737300000000000000000000000000000000000000000000000000000000006064820152608401610a49565b6001600160a01b03831660009081526097602052604090205481811015611fa45760405162461bcd60e51b815260206004820152602660248201527f45524332303a207472616e7366657220616d6f756e742065786365656473206260448201527f616c616e636500000000000000000000000000000000000000000000000000006064820152608401610a49565b6001600160a01b03808516600090815260976020526040808220858503905591851681529081208054849290611fdb908490613fcb565b92505081905550826001600160a01b0316846001600160a01b03167fddf252ad1be2c89b69c2b068fc378daa952ba7f163c4a11628f55a4df523b3ef8460405161202791815260200190565b60405180910390a3611e17565b6001600160a01b0382166120af5760405162461bcd60e51b8152602060048201526024808201527f4264763a204e6f6e2d7a65726f20746f6b656e2061646472657373207265717560448201527f69726564000000000000000000000000000000000000000000000000000000006064820152608401610a49565b6040517f8a6a7eb40000000000000000000000000000000000000000000000000000000081523060048201526001600160a01b038316602482015263ffffffff8216604482015260009073c1e088fc1323b20bcbee9bd1b9fc9546db5624c590638a6a7eb4906064016040805180830381865afa158015612134573d6000803e3d6000fd5b505050506040513d601f19601f820116820180604052508101906121589190614363565b506040805160018082528183019092529192506000919060208083019080368337019050509050828160008151811061219357612193613f69565b63ffffffff929092166020928302919091019091015260408051600180825281830190925260009181602001602082028036833701905050905082816000815181106121e1576121e1613f69565b60200260200101818152505060008073c1e088fc1323b20bcbee9bd1b9fc9546db5624c56001600160a01b0316633b2a1b286004878a60405160200161222993929190614387565b60405160208183030381529060405286866040518463ffffffff1660e01b8152600401612258939291906143b8565b60a0604051808303816000875af1158015612277573d6000803e3d6000fd5b505050506040513d601f19601f8201168201806040525081019061229b919061444d565b9450945050505081816122ae9190614496565b61016360008282546122c09190613fcb565b909155505050505050505050565b60006109bb7f8b73c3c69bb8fe3d512ecc4cf759cc79239f7b179b0ffacaa9a75d522b39400f6122fd60c95490565b60ca546040805160208101859052908101839052606081018290524660808201523060a082015260009060c0016040516020818303038152906040528051906020012090509392505050565b610b3d6124f1565b7f4910fdfa16fed3260ed0e7147f7cc6da11a60208b5b9406d12a635614ffd91435460ff161561238457610cd883612f8b565b826001600160a01b03166352d1902d6040518163ffffffff1660e01b8152600401602060405180830381865afa9250505080156123de575060408051601f3d908101601f191682019092526123db9181019061402d565b60015b6124505760405162461bcd60e51b815260206004820152602e60248201527f45524331393637557067726164653a206e657720696d706c656d656e7461746960448201527f6f6e206973206e6f7420555550530000000000000000000000000000000000006064820152608401610a49565b7f360894a13ba1a3210667c828492db98dca3e2076cc3735a920a3ca505d382bbc81146124e55760405162461bcd60e51b815260206004820152602960248201527f45524331393637557067726164653a20756e737570706f727465642070726f7860448201527f6961626c655555494400000000000000000000000000000000000000000000006064820152608401610a49565b50610cd8838383613056565b610130546001600160a01b0316331461254c5760405162461bcd60e51b815260206004820181905260248201527f4f776e61626c653a2063616c6c6572206973206e6f7420746865206f776e65726044820152606401610a49565b565b600054610100900460ff166125b95760405162461bcd60e51b815260206004820152602b60248201527f496e697469616c697a61626c653a20636f6e7472616374206973206e6f74206960448201526a6e697469616c697a696e6760a81b6064820152608401610a49565b6110d1828261307b565b600054610100900460ff1661262e5760405162461bcd60e51b815260206004820152602b60248201527f496e697469616c697a61626c653a20636f6e7472616374206973206e6f74206960448201526a6e697469616c697a696e6760a81b6064820152608401610a49565b610b3d816040518060400160405280600181526020017f31000000000000000000000000000000000000000000000000000000000000008152506130ff565b600054610100900460ff166126d85760405162461bcd60e51b815260206004820152602b60248201527f496e697469616c697a61626c653a20636f6e7472616374206973206e6f74206960448201526a6e697469616c697a696e6760a81b6064820152608401610a49565b61254c613184565b61013080546001600160a01b0383811673ffffffffffffffffffffffffffffffffffffffff19831681179093556040519116919082907f8be0079c531659141344cd1fd0a4f28419497f9722a3daafe3b4186f6b6457e090600090a35050565b6001600160a01b038116600090815260fd602052604090208054600181018255905b50919050565b60006108296127756122ce565b836040517f19010000000000000000000000000000000000000000000000000000000000006020820152602281018390526042810182905260009060620160405160208183030381529060405280519060200120905092915050565b60008060006127e2878787876131f8565b915091506127ef816132e5565b5095945050505050565b6040517f1c1b877200000000000000000000000000000000000000000000000000000000815230600482015260009081908190819073c1e088fc1323b20bcbee9bd1b9fc9546db5624c590631c1b877290602401600060405180830381600087803b15801561286757600080fd5b505af115801561287b573d6000803e3d6000fd5b505060405163248b5e3960e11b81523060048201526000925073c1e088fc1323b20bcbee9bd1b9fc9546db5624c59150634916bc7290602401602060405180830381865afa1580156128d1573d6000803e3d6000fd5b505050506040513d601f19601f820116820180604052508101906128f5919061402d565b6040516308eeae3160e41b815230600482015290915060009073c1e088fc1323b20bcbee9bd1b9fc9546db5624c590638eeae31090602401602060405180830381865afa15801561294a573d6000803e3d6000fd5b505050506040513d601f19601f8201168201806040525081019061296e919061402d565b905060005b88811015612aa25761016260008b8b8481811061299257612992613f69565b90506020028101906129a491906144a9565b6129b2906020810190613b5f565b6001600160a01b0316815260208101919091526040016000205460ff16612a1b5760405162461bcd60e51b815260206004820152601860248201527f546f6b656e206973206e6f742077686974656c697374656400000000000000006044820152606401610a49565b6000612a4a8b8b84818110612a3257612a32613f69565b9050602002810190612a4491906144a9565b8a61349b565b905060005b8151811015612a8f57818181518110612a6a57612a6a613f69565b602002602001015188612a7d9190613fcb565b9750612a8881613fb2565b9050612a4f565b505080612a9b90613fb2565b9050612973565b5060405163248b5e3960e11b815230600482015260009073c1e088fc1323b20bcbee9bd1b9fc9546db5624c590634916bc7290602401602060405180830381865afa158015612af5573d6000803e3d6000fd5b505050506040513d601f19601f82011682018060405250810190612b19919061402d565b6040516308eeae3160e41b815230600482015290915060009073c1e088fc1323b20bcbee9bd1b9fc9546db5624c590638eeae31090602401602060405180830381865afa158015612b6e573d6000803e3d6000fd5b505050506040513d601f19601f82011682018060405250810190612b92919061402d565b905060008915612bca578761016354612bab9190613fcb565b9050612bb78483614496565b9650612bc38584614496565b9550612bf4565b8761016354612bd99190614496565b9050612be58285614496565b9650612bf18386614496565b95505b6000612bff60995490565b905080600003612c1e57612c17886305f5e100613fde565b9950612d10565b8a15612c995780612c8f612c7d612c4e670de0b6b3a764000061016354600088613561909392919063ffffffff16565b612c6387670de0b6b3a76400008b6000613561565b612c7889670de0b6b3a76400008d6000613561565b6135bc565b8390670de0b6b3a76400006000613561565b612c179190614496565b612d03612cf1612cc2670de0b6b3a764000061016354600187613561909392919063ffffffff16565b612cd786670de0b6b3a76400008a6001613561565b612cec88670de0b6b3a76400008c6001613561565b6135dc565b8290670de0b6b3a76400006001613561565b612d0d9082614496565b99505b816101638190555050505050505093509350935093565b6001600160a01b038216612da35760405162461bcd60e51b815260206004820152602160248201527f45524332303a206275726e2066726f6d20746865207a65726f2061646472657360448201527f73000000000000000000000000000000000000000000000000000000000000006064820152608401610a49565b6001600160a01b03821660009081526097602052604090205481811015612e325760405162461bcd60e51b815260206004820152602260248201527f45524332303a206275726e20616d6f756e7420657863656564732062616c616e60448201527f63650000000000000000000000000000000000000000000000000000000000006064820152608401610a49565b6001600160a01b0383166000908152609760205260408120838303905560998054849290612e61908490614496565b90915550506040518281526000906001600160a01b038516907fddf252ad1be2c89b69c2b068fc378daa952ba7f163c4a11628f55a4df523b3ef9060200160405180910390a3505050565b6001600160a01b038216612f025760405162461bcd60e51b815260206004820152601f60248201527f45524332303a206d696e7420746f20746865207a65726f2061646472657373006044820152606401610a49565b8060996000828254612f149190613fcb565b90915550506001600160a01b03821660009081526097602052604081208054839290612f41908490613fcb565b90915550506040518181526001600160a01b038316906000907fddf252ad1be2c89b69c2b068fc378daa952ba7f163c4a11628f55a4df523b3ef9060200160405180910390a35050565b6001600160a01b0381163b6130085760405162461bcd60e51b815260206004820152602d60248201527f455243313936373a206e657720696d706c656d656e746174696f6e206973206e60448201527f6f74206120636f6e7472616374000000000000000000000000000000000000006064820152608401610a49565b7f360894a13ba1a3210667c828492db98dca3e2076cc3735a920a3ca505d382bbc805473ffffffffffffffffffffffffffffffffffffffff19166001600160a01b0392909216919091179055565b61305f836135f4565b60008251118061306c5750805b15610cd857611e178383613634565b600054610100900460ff166130e65760405162461bcd60e51b815260206004820152602b60248201527f496e697469616c697a61626c653a20636f6e7472616374206973206e6f74206960448201526a6e697469616c697a696e6760a81b6064820152608401610a49565b609a6130f28382614517565b50609b610cd88282614517565b600054610100900460ff1661316a5760405162461bcd60e51b815260206004820152602b60248201527f496e697469616c697a61626c653a20636f6e7472616374206973206e6f74206960448201526a6e697469616c697a696e6760a81b6064820152608401610a49565b81516020928301208151919092012060c99190915560ca55565b600054610100900460ff166131ef5760405162461bcd60e51b815260206004820152602b60248201527f496e697469616c697a61626c653a20636f6e7472616374206973206e6f74206960448201526a6e697469616c697a696e6760a81b6064820152608401610a49565b61254c336126e0565b6000807f7fffffffffffffffffffffffffffffff5d576e7357a4501ddfe92f46681b20a083111561322f57506000905060036132dc565b8460ff16601b1415801561324757508460ff16601c14155b1561325857506000905060046132dc565b6040805160008082526020820180845289905260ff881692820192909252606081018690526080810185905260019060a0016020604051602081039080840390855afa1580156132ac573d6000803e3d6000fd5b5050604051601f1901519150506001600160a01b0381166132d5576000600192509250506132dc565b9150600090505b94509492505050565b60008160048111156132f9576132f9614134565b036133015750565b600181600481111561331557613315614134565b036133625760405162461bcd60e51b815260206004820152601860248201527f45434453413a20696e76616c6964207369676e617475726500000000000000006044820152606401610a49565b600281600481111561337657613376614134565b036133c35760405162461bcd60e51b815260206004820152601f60248201527f45434453413a20696e76616c6964207369676e6174757265206c656e677468006044820152606401610a49565b60038160048111156133d7576133d7614134565b0361342f5760405162461bcd60e51b815260206004820152602260248201527f45434453413a20696e76616c6964207369676e6174757265202773272076616c604482015261756560f01b6064820152608401610a49565b600481600481111561344357613443614134565b03610b3d5760405162461bcd60e51b815260206004820152602260248201527f45434453413a20696e76616c6964207369676e6174757265202776272076616c604482015261756560f01b6064820152608401610a49565b606073c1e088fc1323b20bcbee9bd1b9fc9546db5624c5630d2615b1836134c257306134c4565b335b846134cf57336134d1565b305b6134de6020880188613b5f565b6134eb60208901896145d7565b6134f860408b018b6145d7565b6040518863ffffffff1660e01b815260040161351a9796959493929190614621565b6000604051808303816000875af1158015613539573d6000803e3d6000fd5b505050506040513d6000823e601f3d908101601f191682016040526109329190810190614677565b60008061356f868686613736565b9050600183600281111561358557613585614134565b1480156135a257506000848061359d5761359d613ff5565b868809115b1561077a576135b2600182613fcb565b9695505050505050565b60006135c884846137e5565b93506135d484836137e5565b949350505050565b60006135e884846137fb565b93506135d484836137fb565b6135fd81612f8b565b6040516001600160a01b038216907fbc7cd75a20ee27fd9adebab32041f755214dbc6bffa90cc0225b39da2e5c2d3b90600090a250565b60606001600160a01b0383163b6136b35760405162461bcd60e51b815260206004820152602660248201527f416464726573733a2064656c65676174652063616c6c20746f206e6f6e2d636f60448201527f6e747261637400000000000000000000000000000000000000000000000000006064820152608401610a49565b600080846001600160a01b0316846040516136ce919061471d565b600060405180830381855af49150503d8060008114613709576040519150601f19603f3d011682016040523d82523d6000602084013e61370e565b606091505b509150915061077a82826040518060600160405280602781526020016147306027913961380b565b60008080600019858709858702925082811083820303915050806000036137705783828161376657613766613ff5565b0492505050610932565b80841161377c57600080fd5b60008486880960026001871981018816978890046003810283188082028403028082028403028082028403028082028403028082028403029081029092039091026000889003889004909101858311909403939093029303949094049190911702949350505050565b60008183106137f45781610932565b5090919050565b6000818310156137f45781610932565b6060831561381a575081610932565b82511561382a5782518084602001fd5b8160405162461bcd60e51b8152600401610a499190613950565b60008083601f84011261385657600080fd5b50813567ffffffffffffffff81111561386e57600080fd5b6020830191508360208260051b850101111561388957600080fd5b9250929050565b80356004811061389f57600080fd5b919050565b600080600080606085870312156138ba57600080fd5b843567ffffffffffffffff8111156138d157600080fd5b6138dd87828801613844565b90955093506138f0905060208601613890565b9396929550929360400135925050565b60005b8381101561391b578181015183820152602001613903565b50506000910152565b6000815180845261393c816020860160208601613900565b601f01601f19169290920160200192915050565b6020815260006109326020830184613924565b80356001600160a01b038116811461389f57600080fd5b6000806040838503121561398d57600080fd5b61399683613963565b946020939093013593505050565b80356002811061389f57600080fd5b600080600080606085870312156139c957600080fd5b843567ffffffffffffffff8111156139e057600080fd5b6139ec87828801613844565b90955093506138f09050602086016139a4565b803560ff8116811461389f57600080fd5b6000806000806000806000806000806101208b8d031215613a3057600080fd5b8a3567ffffffffffffffff811115613a4757600080fd5b613a538d828e01613844565b909b509950613a66905060208c01613890565b975060408b01359650613a7b60608c01613963565b955060808b0135945060a08b01359350613a9760c08c016139ff565b925060e08b013591506101008b013590509295989b9194979a5092959850565b600080600060608486031215613acc57600080fd5b613ad584613963565b9250613ae360208501613963565b9150604084013590509250925092565b60008060008060408587031215613b0957600080fd5b843567ffffffffffffffff80821115613b2157600080fd5b613b2d88838901613844565b90965094506020870135915080821115613b4657600080fd5b50613b5387828801613844565b95989497509550505050565b600060208284031215613b7157600080fd5b61093282613963565b60008083601f840112613b8c57600080fd5b50813567ffffffffffffffff811115613ba457600080fd5b60208301915083602082850101111561388957600080fd5b60008060008060408587031215613bd257600080fd5b843567ffffffffffffffff80821115613bea57600080fd5b613bf688838901613b7a565b90965094506020870135915080821115613c0f57600080fd5b50613b5387828801613b7a565b634e487b7160e01b600052604160045260246000fd5b604051601f8201601f1916810167ffffffffffffffff81118282101715613c5b57613c5b613c1c565b604052919050565b60008060408385031215613c7657600080fd5b613c7f83613963565b915060208084013567ffffffffffffffff80821115613c9d57600080fd5b818601915086601f830112613cb157600080fd5b813581811115613cc357613cc3613c1c565b613cd5601f8201601f19168501613c32565b91508082528784828501011115613ceb57600080fd5b80848401858401376000848284010152508093505050509250929050565b6000806000806000806000806000806101208b8d031215613d2957600080fd5b8a3567ffffffffffffffff811115613d4057600080fd5b613d4c8d828e01613844565b909b509950613a66905060208c016139a4565b63ffffffff81168114610b3d57600080fd5b60008060408385031215613d8457600080fd5b613d8d83613963565b91506020830135613d9d81613d5f565b809150509250929050565b600080600080600080600060e0888a031215613dc357600080fd5b613dcc88613963565b9650613dda60208901613963565b95506040880135945060608801359350613df6608089016139ff565b925060a0880135915060c0880135905092959891949750929550565b60008060408385031215613e2557600080fd5b613e2e83613963565b9150613e3c60208401613963565b90509250929050565b6000806000806000806000806000806000806101208d8f031215613e6857600080fd5b67ffffffffffffffff8d351115613e7e57600080fd5b613e8b8e8e358f01613844565b909c509a50613e9c60208e016139a4565b995060408d0135985067ffffffffffffffff60608e01351115613ebe57600080fd5b613ece8e60608f01358f01613844565b909850965067ffffffffffffffff60808e01351115613eec57600080fd5b613efc8e60808f01358f01613844565b909650945060a08d01359350613f1460c08e016139ff565b925060e08d013591506101008d013590509295989b509295989b509295989b565b600181811c90821680613f4957607f821691505b60208210810361276257634e487b7160e01b600052602260045260246000fd5b634e487b7160e01b600052603260045260246000fd5b600060208284031215613f9157600080fd5b813561093281613d5f565b634e487b7160e01b600052601160045260246000fd5b600060018201613fc457613fc4613f9c565b5060010190565b8082018082111561082957610829613f9c565b808202811582820484141761082957610829613f9c565b634e487b7160e01b600052601260045260246000fd5b60008261402857634e487b7160e01b600052601260045260246000fd5b500490565b60006020828403121561403f57600080fd5b5051919050565b81835260007f07ffffffffffffffffffffffffffffffffffffffffffffffffffffffffffffff83111561407857600080fd5b8260051b80836020870137939093016020019392505050565b60006101008083016001600160a01b03808f1685526020818f16818701528360408701528293508c8352610120860193508d925060005b8d8110156140ed57826140da85613963565b16855293810193928101926001016140c8565b50505050828103606084015261410481898b614046565b91505085608083015261411c60a083018660ff169052565b60c082019390935260e0015298975050505050505050565b634e487b7160e01b600052602160045260246000fd5b6004811061415a5761415a614134565b9052565b6002811061415a5761415a614134565b6001600160a01b0387811682528681166020830152851660408201526060810184905260c081016141a2608083018561414a565b6141af60a083018461415e565b979650505050505050565b6000808335601e198436030181126141d157600080fd5b830160208101925035905067ffffffffffffffff8111156141f157600080fd5b8060051b360382131561388957600080fd5b8183526000602080850194508260005b8581101561423e57813561422681613d5f565b63ffffffff1687529582019590820190600101614213565b509495945050505050565b60a08082528101869052600060c0600588901b830181019083018983805b8b8110156143015786850360bf190184528235368e9003605e1901811261428c578283fd5b8d0160606001600160a01b036142a183613963565b16875260206142b2818401846141ba565b83838b01526142c4848b018284614203565b9350505060406142d6818501856141ba565b9450898403828b01526142ea848683614046565b995050509586019594909401935050600101614267565b505050506020830196909652506040810193909352606083019190915260809091015292915050565b6001600160a01b038681168252851660208201526040810184905260a08101614356606083018561414a565b6135b2608083018461415e565b6000806040838503121561437657600080fd5b505080516020909101519092909150565b606081016005851061439b5761439b614134565b93815260208101929092526001600160a01b031660409091015290565b6060815260006143cb6060830186613924565b82810360208481019190915285518083528682019282019060005b8181101561440857845163ffffffff16835293830193918301916001016143e6565b50508481036040860152855180825290820192508186019060005b8181101561443f57825185529383019391830191600101614423565b509298975050505050505050565b600080600080600060a0868803121561446557600080fd5b855161447081613d5f565b602087015160408801516060890151608090990151929a91995097965090945092505050565b8181038181111561082957610829613f9c565b60008235605e198336030181126144bf57600080fd5b9190910192915050565b601f821115610cd857600081815260208120601f850160051c810160208610156144f05750805b601f850160051c820191505b8181101561450f578281556001016144fc565b505050505050565b815167ffffffffffffffff81111561453157614531613c1c565b6145458161453f8454613f35565b846144c9565b602080601f83116001811461457a57600084156145625750858301515b600019600386901b1c1916600185901b17855561450f565b600085815260208120601f198616915b828110156145a95788860151825594840194600190910190840161458a565b50858210156145c75787850151600019600388901b60f8161c191681555b5050505050600190811b01905550565b6000808335601e198436030181126145ee57600080fd5b83018035915067ffffffffffffffff82111561460957600080fd5b6020019150600581901b360382131561388957600080fd5b60006001600160a01b03808a168352808916602084015280881660408401525060a0606083015261465660a083018688614203565b8281036080840152614669818587614046565b9a9950505050505050505050565b6000602080838503121561468a57600080fd5b825167ffffffffffffffff808211156146a257600080fd5b818501915085601f8301126146b657600080fd5b8151818111156146c8576146c8613c1c565b8060051b91506146d9848301613c32565b81815291830184019184810190888411156146f357600080fd5b938501935b83851015614711578451825293850193908501906146f8565b98975050505050505050565b600082516144bf81846020870161390056fe416464726573733a206c6f772d6c6576656c2064656c65676174652063616c6c206661696c6564a264697066735822122060c9dba611631edeb6aa3878cc3309e9ebd6979e7e7e7177e0571d562729141964736f6c63430008110033",
  "linkReferences": {},
  "deployedLinkReferences": {}
}